:100000000C9416010C9445010C9445010C94450187
:100010000C9445010C9445010C9445010C94450148
:100020000C9445010C9445010C9445010C94450138
:100030000C9445010C9445010C9445010C94450128
:100040000C9445010C9445010C9445010C94450118
:100050000C9445010C9445010C9445010C94030B40
:100060000C9445010C9483040C9473050C94450185
:100070000C9445010C9445010C9445010C944501E8
:100080000C9445010C9445010C9445010C944501D8
:100090000C94B7040C94B2050C9445010C944501E2
:1000A0000C9445010C9445010C9445010C944501B8
:1000B0000C9445010C9445010C9445010C944501A8
:1000C0000C9445010C9445010C9445010C94EB04EF
:1000D0000C94F1050C9445010C941F050C9430060A
:1000E0000C9445010D0C100C030C070C470C140C60
:1000F000180C1E0C220C260C2C0C300C340C470C4B
:100100003A0C3E0C420C0000090A02080B0C0D07C9
:1001100006030401000000000000000000000000D1
:1001200000000000000000000000000000000000CF
:10013000000011100F00000000000000000000008F
:10014000000000000000000000000000010210207C
:1001500020080810204010204080020102010804FD
:100160000201010204081020408080402010080491
:1001700002018004020180402010080402010804EA
:10018000020101020408102040800102040810202E
:100190004080050505050705080808080202020257
:1001A0000A0A080804040404010101010101010113
:1001B0000303030303030303040707070C0C0C0CDE
:1001C0000C0C0C0C020202020606060606060606C7
:1001D0000B0B0B0B0B0B0B0B00002000230026005E
:1001E00029002C002F00320000010000030106014D
:1001F000090100002200250028002B002E003100FC
:10020000340002010000050108010B01000021007B
:10021000240027002A002D003000330001010000D7
:10022000040107010A01B501F006C60A11241FBE28
:10023000CFEFD1E2DEBFCDBF12E0A0E0B2E0EEE052
:10024000FFE100E00BBF02C007900D92AE32B10794
:10025000D9F724E0AEE2B2E001C01D92A93EB20798
:10026000E1F712E0CCE2D2E000E006C022970109FB
:10027000FE010BBF0E94810FC632D10780E0080744
:10028000A9F70E94CB030C94E00C0C94000040E012
:1002900052EC61E070E088E992E00E946F0660E055
:1002A00070E08EE292E00C948E090F931F9360E051
:1002B00072E088E992E00E9419028EE292E00E94C8
:1002C000C60900E010E027ED33E440E050E068ECC0
:1002D00072E48EE292E00E94EE09AB01BC0122E0E2
:1002E00030E088E992E00E94B9032DE730E080E039
:1002F00090E0AC015527042E472F702D052E562F68
:10030000602D019681154DE7940799F72150310929
:100310002115310561F769E072E088E992E00E94F9
:1003200019028EE292E00E94C60900E010E027ED7B
:1003300033E440E050E068EC72E48EE292E00E9428
:10034000EE09AB01BC0122E030E088E992E00E94B6
:10035000B9038FEF97EA21E6815090402040E1F702
:1003600000C000001F910F9108950F9302E320E356
:100370004EE26CE28EE292E00E9451080F910895E5
:10038000CF92DF92EF92FF920F931F93CF93DF9361
:100390006C017A01EB01E60EF71E00E010E0CE15CD
:1003A000DF0561F06991D601ED91FC910190F0813A
:1003B000E02DC6010995080F191FF1CFC801DF9183
:1003C000CF911F910F91FF90EF90DF90CF90089504
:1003D0006115710581F0DB010D900020E9F7AD0199
:1003E00041505109461B570BDC01ED91FC910280F5
:1003F000F381E02D099480E090E00895DC01ED9117
:10040000FC910190F081E02D09940F931F93CF93FD
:10041000DF93EC016DE00E94FE018C016AE0CE01E9
:100420000E94FE01800F911FDF91CF911F910F91CC
:1004300008950F931F93CF93DF93EC010E94E8017F
:100440008C01CE010E940502800F911FDF91CF9198
:100450001F910F9108958F929F92AF92BF92CF926A
:10046000DF92EF92FF920F931F93CF93DF93CDB75D
:10047000DEB7A1970FB6F894DEBF0FBECDBF7C01EB
:10048000C42EE52FCB01D22E19A221E02D1510F09C
:100490002AE0D22E8E010F5D1F4F8D2C912CA12CA6
:1004A000B12C6C2D7E2FA50194010E94590F8C2D2B
:1004B000D29E80191124015011098A3014F4805DF4
:1004C00001C0895CF8018083211531054105510582
:1004D00021F0C22EE32FCA01E4CFB801C7010E9468
:1004E000E801A1960FB6F894DEBF0FBECDBFDF9135
:1004F000CF911F910F91FF90EF90DF90CF90BF9021
:10050000AF909F908F900895CF92DF92EF92FF92DD
:100510000F931F93CF93DF93EC016A017B012115A9
:10052000310579F4E881F9810190F081E02D642FA3
:10053000DF91CF911F910F91FF90EF90DF90CF90BF
:1005400009942A303105E9F477FF1AC06DE20E9460
:10055000FE018C0144275527BA014C195D096E092B
:100560007F092AE0CE010E942B02800F911FDF91AC
:10057000CF911F910F91FF90EF90DF90CF90089552
:100580002AE0B701A601CE01DF91CF911F910F9113
:10059000FF90EF90DF90CF900C942B024F925F92E0
:1005A0006F927F928F929F92AF92BF92CF92DF9283
:1005B000EF92FF920F931F93CF93DF93EC016A01A9
:1005C0007B01B22E9A01AB01C701B6010E94400F18
:1005D000882319F060E172E027C026013701E89412
:1005E00077F82FEF3FEF4FE75FE7C301B2010E94BB
:1005F000400F81110DC02FEF3FEF4FE75FE7C301C1
:10060000B2010E94480D18161CF464E172E00CC09F
:100610002FEF3FEF4FE75FE4C701B6010E94970E4F
:100620001816ACF468E172E0CE01DF91CF911F9112
:100630000F91FF90EF90DF90CF90BF90AF909F9081
:100640008F907F906F905F904F900C94E8012FEF08
:100650003FEF4FE75FECC701B6010E94480D87FDF1
:10066000E1CF20E030E0A901C701B6010E94480DAA
:1006700087FF0AC06DE2CE010E94FE018C01F7FAED
:10068000F094F7F8F09402C000E010E0A12C60E0D4
:1006900070E080E09FE3AB1441F020E030E040E206
:1006A00051E40E944C0DA394F6CF9B01AC01C7010D
:1006B000B6010E94E40C6B017C010E94B90D2B0174
:1006C0003C010E94E50D9B01AC01C701B6010E94EF
:1006D000E30C6B017C012AE0B301A201CE010E9470
:1006E0002B02080F191FBB2039F06CE172E0CE011C
:1006F0000E94E801080F191F7B2C772041F120E0B0
:1007000030E040E251E4C701B6010E949B0E6B014C
:100710007C010E94B40D4B01AA2497FCA094BA2C32
:100720002AE030E0B501A401CE010E948402080F46
:10073000191FC501B4010E94E70D9B01AC01C7015F
:10074000B6010E94E30C6B017C017A94D6CFC801FC
:10075000DF91CF911F910F91FF90EF90DF90CF909D
:10076000BF90AF909F908F907F906F905F904F90D1
:1007700008950F931F93CF93DF93EC010E94CE0255
:100780008C01CE010E940502800F911FDF91CF9155
:100790001F910F9108950E94960B0E944701C2E598
:1007A000D5E00E9455012097E1F30E945205F9CF50
:1007B000FC0124853585F901E05CFF4F8081918142
:1007C000329620813181821B930B8F739927089574
:1007D000FC0184859585FC01E05CFF4F40815181DF
:1007E0003296208131814217530741F00190F08108
:1007F000E02DE80FF91F808190E008958FEF9FEFC3
:100800000895FC0184859585FC01E05CFF4F4081E3
:1008100051813296208131814217530779F0A081AE
:10082000B181A80FB91F8C91208131812F5F3F4F7B
:100830002F7333273183208390E008958FEF9FEF4C
:100840000895FC0181A1882329F0A489B5898C91A0
:1008500086FFFBCF11A20895CF93DF93FC0126857D
:100860003785D901A05CBF4F8D919C91119701965E
:100870008F739927E901CE5BDF4F48815981841737
:100880009507D9F30D90BC91A02DA20FB31F6C93C7
:10089000A685B785A05CBF4F11969C938E93A689C1
:1008A000B7892C9181E090E0078C02C0880F991FD6
:1008B0000A94E2F7282B2C9381E081A30488F58920
:1008C000E02D80818064808381E090E0DF91CF9192
:1008D0000895FB01E05CFF4F208131812F5F3F4F86
:1008E0002F733327DB01AE5BBF4F4D915C91241713
:1008F000350739F0A081B181A60FB71F8C933183E2
:100900002083089508951F920F920FB60F9211241D
:100910000BB60F922F933F934F935F936F937F93F9
:100920008F939F93AF93BF93EF93FF938091C000FA
:1009300082FD07C08091C60066E974E00E946904E8
:1009400002C08091C600FF91EF91BF91AF919F913E
:100950008F917F916F915F914F913F912F910F9068
:100960000BBE0F900FBE0F901F90189508951F9209
:100970000F920FB60F9211240BB60F922F933F9345
:100980004F935F936F937F938F939F93AF93BF9397
:10099000EF93FF938091C80082FD07C08091CE0045
:1009A0006EE074E00E94690402C08091CE00FF9165
:1009B000EF91BF91AF919F918F917F916F915F91D7
:1009C0004F913F912F910F900BBE0F900FBE0F9044
:1009D0001F90189508951F920F920FB60F92112431
:1009E0000BB60F922F933F934F935F936F937F9329
:1009F0008F939F93AF93BF93EF93FF938091D0001A
:100A000082FD07C08091D60066E873E00E94690409
:100A100002C08091D600FF91EF91BF91AF919F915D
:100A20008F917F916F915F914F913F912F910F9097
:100A30000BBE0F900FBE0F901F90189508951F9238
:100A40000F920FB60F9211240BB60F922F933F9374
:100A50004F935F936F937F938F939F93AF93BF93C6
:100A6000EF93FF938091300182FD07C080913601A2
:100A70006EEF72E00E94690402C080913601FF911E
:100A8000EF91BF91AF919F918F917F916F915F9106
:100A90004F913F912F910F900BBE0F900FBE0F9073
:100AA0001F90189588E992E00E94D803892B11F0D5
:100AB0000E94820486E792E00E94D803892B11F0FD
:100AC0000E94B60484E592E00E94D803892B11F0BD
:100AD0000E94EA0482E392E00E94D803892B11F07D
:100AE0000C941E0508951F920F920FB60F921124B9
:100AF0000BB60F922F933F938F939F93EF93FF9398
:100B000020919204309193048091940490919504E3
:100B10002817390731F48091C1008F7D8093C1007F
:100B200014C0E0919404F0919504EE5AFB4F20819B
:100B3000809194049091950401968F7399279093D6
:100B40009504809394042093C600FF91EF919F91A8
:100B50008F913F912F910F900BBE0F900FBE0F9072
:100B60001F9018951F920F920FB60F9211240BB67B
:100B70000F922F933F938F939F93EF93FF93209127
:100B80000A0430910B0480910C0490910D042817F5
:100B9000390731F48091C9008F7D8093C90014C05A
:100BA000E0910C04F0910D04E653FC4F20818091FC
:100BB0000C0490910D0401968F73992790930D0466
:100BC00080930C042093CE00FF91EF919F918F9121
:100BD0003F912F910F900BBE0F900FBE0F901F9063
:100BE00018951F920F920FB60F9211240BB60F9209
:100BF0002F933F938F939F93EF93FF9320918203C3
:100C000030918303809184039091850328173907DD
:100C100031F48091D1008F7D8093D10014C0E09198
:100C20008403F0918503EE5BFC4F20818091840367
:100C30009091850301968F739927909385038093F4
:100C400084032093D600FF91EF919F918F913F9164
:100C50002F910F900BBE0F900FBE0F901F90189505
:100C60001F920F920FB60F9211240BB60F922F9373
:100C70003F938F939F93EF93FF932091FA023091CC
:100C8000FB028091FC029091FD022817390731F494
:100C9000809131018F7D8093310114C0E091FC027D
:100CA000F091FD02E654FD4F20818091FC0290916D
:100CB000FD0201968F7399279093FD028093FC02A9
:100CC00020933601FF91EF919F918F913F912F914A
:100CD0000F900BBE0F900FBE0F901F901895CF92E4
:100CE000DF92EF92FF92CF93DF93EC016A017B01D9
:100CF000411581EE580761057105F9F0EC89FD8910
:100D000081E090E008A002C0880F991F0A94E2F7E2
:100D1000808360E079E08DE390E0A70196010E9476
:100D2000590F215031094109510956954795379579
:100D30002795211580E1380798F0EC89FD8910820C
:100D400060E874E88EE190E0A70196010E94590FD7
:100D500021503109410951095695479537952795F5
:100D6000E889F9893083EA89FB89208319A2EE8911
:100D7000FF89408181E090E09C010C8C02C0220F31
:100D8000331F0A94E2F7422B4083EE89FF894081AA
:100D90009C010D8C02C0220F331F0A94E2F7422BF4
:100DA0004083EE89FF8940819C010E8C02C0220F96
:100DB000331F0A94E2F7422B4083EE89FF8920819A
:100DC0000F8C02C0880F991F0A94E2F78095822346
:100DD0008083DF91CF91FF90EF90DF90CF900895C7
:100DE000CF9310929B0210929A0288EE93E0A0E0BB
:100DF000B0E080939C0290939D02A0939E02B093DA
:100E00009F0222E232E0309399022093980246E951
:100E100054E05093A5024093A40242E554E050935D
:100E2000A7024093A60245EC50E05093A9024093DC
:100E3000A80244EC50E05093AB024093AA0240EC6D
:100E400050E05093AD024093AC0241EC50E050931F
:100E5000AF024093AE0242EC50E05093B102409397
:100E6000B00246EC50E05093B3024093B202C4E0AB
:100E7000C093B402F3E0F093B502E7E0E093B6026A
:100E800075E07093B70261E06093B8021092790246
:100E90001092780280937A0290937B02A0937C0256
:100EA000B0937D0230937702209376024EE054E0B7
:100EB00050938302409382024AEC53E050938502A0
:100EC000409384024DEC50E0509387024093860299
:100ED0004CEC50E0509389024093880248EC50E07B
:100EE00050938B0240938A0249EC50E050938D025C
:100EF00040938C024AEC50E050938F0240938E0254
:100F00004EEC50E05093910240939002C0939202B5
:100F1000F0939302E093940270939502609396028B
:100F200010925702109256028093580290935902E1
:100F3000A0935A02B0935B0230935502209354025F
:100F400046E853E0509361024093600242E453E06C
:100F5000509363024093620245ED50E05093650266
:100F60004093640244ED50E0509367024093660260
:100F700040ED50E0509369024093680241ED50E02B
:100F800050936B0240936A0242ED50E050936D0221
:100F900040936C0246ED50E050936F0240936E0216
:100FA000C0937002F0937102E09372027093730227
:100FB00060937402109235021092340280933602CC
:100FC00090933702A0933802B093390230933302E2
:100FD000209332028EEF92E090933F0280933E0284
:100FE0008AEB92E0909341028093400285E391E086
:100FF000909343028093420284E391E090934502F0
:101000008093440280E391E09093470280934602EC
:1010100081E391E0909349028093480282E391E05A
:1010200090934B0280934A0286E391E090934D02A5
:1010300080934C02C0934E02F0934F02E093500213
:101040007093510260935202CF9108952091DE0473
:10105000222399F03FB7F8942091DE04213059F40F
:101060002DB32093DC044DB32091DD04209524237F
:101070002DBB3FBF02C03093DC048CBD9DBD0895E5
:101080008091DE04882361F09FB7F8942091DE04FC
:101090008091DC04213019F48DBB9FBF08958FBF70
:1010A00008950F93FC0100836383218342830F9192
:1010B0000895AF92BF92DF92EF92FF920F931F932A
:1010C000CF93DF931F92CDB7DEB75C01D62EFC0124
:1010D00080818F3F39F46EBD00000DB407FEFDCF57
:1010E0008EB52AC007E010E040E0EE24E394F12C36
:1010F000440F61E0F501808149830E94810C9701D2
:10110000002E01C0220F0A94EAF76D2D6223F5012B
:1011100082810E94810C60E0F50180810E94810C37
:10112000F50181810E94B70C4981892B09F041604A
:1011300001501109E8F6842F0F90DF91CF911F9194
:101140000F91FF90EF90DF90BF90AF900895DF92E6
:10115000EF92FF920F931F93CF93DF93EC01162F23
:10116000F42ED52EE22E1F7788818F3F39F480919F
:10117000DA049091DB040E94260803C060E00E941C
:10118000810C60E08B810E94810C612FCE010E9456
:1011900059080F2D1D2DFE0CF01641F06FEFCE01FA
:1011A0000E945908F80181938F01F6CF88818F3F03
:1011B00011F40E94400861E08B81DF91CF911F9173
:1011C0000F91FF90EF90DF900C94810CCF93DF9301
:1011D0001F92CDB7DEB7198221E0AE014F5F5F4F9E
:1011E0000E94A70889810F90DF91CF910895CF9336
:1011F000DF9300D0CDB7DEB719821A8222E0AE01AC
:101200004F5F5F4F0E94A708898190E0982F882741
:101210002A81822B0F900F90DF91CF9108950F9329
:101220001F93CF93DF93EC01062F142F88818F3FFC
:1012300039F48091DA049091DB040E94260803C0FF
:1012400060E00E94810C60E08B810E94810C602F25
:101250006068CE010E945908612FCE010E94590892
:1012600088818F3F11F40E94400861E08B81DF91FB
:10127000CF911F910F910C94810CCF93DF93EC01D0
:1012800060E00E94E608482F437D426060E0CE01A6
:10129000DF91CF910C940F091F93CF93DF93EC0153
:1012A000162F60E00E94E608482F112311F04068D5
:1012B00001C04F7760E0CE01DF91CF911F910C9478
:1012C0000F091F93CF93DF93EC01162F60E00E946C
:1012D000E608482F112311F0406401C04F7B60E005
:1012E000CE01DF91CF911F910C940F090F931F93A3
:1012F000CF93DF93EC018B0160E00E94E608482F5A
:101300000130110511F4406101C04F7E60E0CE0153
:10131000DF91CF911F910F910C940F090F931F93A1
:10132000CF93DF93EC018B0161E08B810E94480C2D
:1013300061E08B810E94810C88818F3F81F061E0A8
:101340000E94480C60E088810E94810C61E08A81E3
:101350000E94480C60E089810E94480C02C00E94F3
:10136000CD0AB801CE010E94760960E0CE010E944C
:101370004C0960E0CE010E946109CE010E943D0946
:1013800081E0DF91CF911F910F910895CF93DF936B
:10139000EC010E943D0961E0CE010E944C096AE027
:1013A00070E080E090E00E94700B60E0CE010E944F
:1013B000E608482F406260E0CE010E940F0961E418
:1013C00070E080E090E00E94700B61E0CE010E942E
:1013D000F70896958795DF91CF9108954F925F9288
:1013E0006F927F928F929F92AF92BF92CF92DF9235
:1013F000EF92FF920F931F93CF93DF934A015B010C
:10140000680179010E94C609BC0180E090E00E9459
:10141000E50D20E030E040E058E30E949B0EA7017C
:1014200096010E949B0E2B013C01A50194016FE7E0
:1014300075E08BE196EB0E944C0DA30192010E9496
:101440009B0E26E133E843E957E30E94E40C0E9437
:10145000020F22E331E140E85BE30E94E30C2FE757
:1014600035E04BE955EB0E944C0D8B01D82FC92F6D
:1014700020E030E0A9010E94970E87FF73C0A5010C
:101480009401C301B2010E944C0D20E030E048EC11
:1014900052E40E949B0E6B017C012BE532E44EE08E
:1014A00050E40E949B0E2FE135E042E753EC0E948E
:1014B000E40C2B013C01A7019601C701B6010E9473
:1014C0009B0E4B015C0124E338E749E25BE30E9499
:1014D0009B0E9B01AC01C301B2010E94E40C2B01E5
:1014E0003C01A7019601C501B4010E949B0E4B016E
:1014F0005C0126E03FEE41EA56E30E949B0E9B0111
:10150000AC01C301B2010E94E30C2B013C01A70115
:101510009601C501B4010E949B0E4B015C0123E1C1
:1015200037E142EF52E30E949B0E9B01AC01C301E5
:10153000B2010E94E30C2B013C01A7019601C501F9
:10154000B4010E949B0E2BE339E947E25FE20E945F
:101550009B0E9B01AC01C301B2010E94E40C8B0104
:10156000D82FC92FB8018D2F9C2FDF91CF911F91BC
:101570000F91FF90EF90DF90CF90BF90AF909F9032
:101580008F907F906F905F904F90089586E5809345
:10159000DA0481E08093DB040895CF93CFB7F89409
:1015A0008091DF04811127C0E7ECF1E08491E1E84C
:1015B000F1E09491E82FF0E0EE0FFF1FE45FFD4FA4
:1015C000A591B4918C91892321F461E085E30E9477
:1015D000810C61E085E30E94480C8CB580618CBD74
:1015E0008CB580648CBD61E084E30E94480C61E0AE
:1015F00083E30E94480C8091DF048F5F8093DF04B7
:10160000CFBFCF9108951F920F920FB60F92112462
:101610002F933F938F939F93AF93BF938091E10458
:101620009091E204A091E304B091E4043091E004CD
:1016300023E0230F2D3720F40196A11DB11D05C015
:1016400026E8230F0296A11DB11D2093E00480938C
:10165000E1049093E204A093E304B093E404809146
:10166000E5049091E604A091E704B091E8040196A6
:10167000A11DB11D8093E5049093E604A093E704B7
:10168000B093E804BF91AF919F918F913F912F91BB
:101690000F900FBE0F901F9018953FB7F894809150
:1016A000E5049091E604A091E704B091E80426B522
:1016B000A89B05C02F3F19F00196A11DB11D3FBF8A
:1016C0006627782F892F9A2F620F711D811D911D1A
:1016D00042E0660F771F881F991F4A95D1F708953A
:1016E000CF92DF92EF92FF92CF93DF936B017C0159
:1016F0000E944D0BEB01C114D104E104F10479F017
:101700000E944D0B6C1B7D0B683E7340A0F381E083
:10171000C81AD108E108F108C851DC4FECCFDF91BD
:10172000CF91FF90EF90DF90CF900895789484B59B
:10173000826084BD84B5816084BD85B5826085BDCD
:1017400085B5816085BDEEE6F0E0808181608083B3
:10175000E1E8F0E010828081826080838081816096
:101760008083E0E8F0E0808181608083E1EBF0E05D
:10177000808184608083E0EBF0E080818160808301
:10178000E1E9F0E0808182608083808181608083F4
:10179000E0E9F0E0808181608083E1EAF0E080812F
:1017A00082608083808181608083E0EAF0E08081D4
:1017B00081608083E1E2F1E08081826080838081CA
:1017C00081608083E0E2F1E0808181608083EAE7EC
:1017D000F0E080818460808380818260808380816A
:1017E000816080838081806880831092C100089529
:1017F00090E0FC013197E131F10508F048C0EE5866
:10180000FF4F0C947B0F809180008F7703C08091F5
:1018100080008F7D80938000089584B58F7702C00B
:1018200084B58F7D84BD08958091B0008F7703C00B
:101830008091B0008F7D8093B000089580919000DA
:101840008F7707C0809190008F7D03C080919000BA
:10185000877F8093900008958091A0008F7707C0C4
:101860008091A0008F7D03C08091A000877F80932E
:10187000A0000895809120018F7707C080912001FA
:101880008F7D03C080912001877F80932001089580
:10189000CF93DF9390E0FC01E45BFE4F2491FC01C9
:1018A000EE56FE4F8491882349F190E0880F991FEE
:1018B000FC01E45FFD4FA591B4918E509E4FFC0159
:1018C000C591D4919FB7611108C0F8948C9120956F
:1018D00082238C93888182230AC0623051F4F89469
:1018E0008C91322F309583238C938881822B88832F
:1018F00004C0F8948C91822B8C939FBFDF91CF9181
:1019000008950F931F93CF93DF931F92CDB7DEB748
:10191000282F30E0F901EA5FFE4F8491F901E45B82
:10192000FE4F1491F901EE56FE4F04910023C9F0C9
:10193000882321F069830E94F80B6981E02FF0E091
:10194000EE0FFF1FEE50FE4FA591B4919FB7F89494
:101950008C91611103C01095812301C0812B8C9360
:101960009FBF0F90DF91CF911F910F910895CF935B
:10197000DF93282F30E0F901EA5FFE4F8491F901EF
:10198000E45BFE4FD491F901EE56FE4FC491CC2397
:1019900091F081110E94F80BEC2FF0E0EE0FFF1F89
:1019A000E852FE4FA591B4912C912D2381E090E057
:1019B00021F480E002C080E090E0DF91CF910895B3
:1019C000F8940C94850F5058BB27AA270ED075C1E8
:1019D00066D130F06BD120F031F49F3F11F41EF44A
:1019E0005BC10EF4E095E7FB51C1E92F77D180F39D
:1019F000BA17620773078407950718F071F49EF50C
:101A00008FC10EF4E0950B2EBA2FA02D0B01B9015A
:101A100090010C01CA01A0011124FF27591B99F064
:101A2000593F50F4503E68F11A16F040A22F232F70
:101A3000342F4427585FF3CF469537952795A795C0
:101A4000F0405395C9F77EF41F16BA0B620B730B67
:101A5000840BBAF09150A1F0FF0FBB1F661F771FD8
:101A6000881FC2F70EC0BA0F621F731F841F48F48D
:101A7000879577956795B795F7959E3F08F0B3CF13
:101A80009395880F08F09927EE0F979587950895FD
:101A9000D9D008F481E008950CD00FC107D140F0EF
:101AA000FED030F021F45F3F19F0F0C0511139C180
:101AB000F3C014D198F39923C9F35523B1F3951BBF
:101AC000550BBB27AA2762177307840738F09F5F5F
:101AD0005F4F220F331F441FAA1FA9F333D00E2ECE
:101AE0003AF0E0E830D091505040E695001CCAF73B
:101AF00029D0FE2F27D0660F771F881FBB1F261700
:101B000037074807AB07B0E809F0BB0B802DBF01D2
:101B1000FF2793585F4F2AF09E3F510568F0B6C0EB
:101B200000C15F3FECF3983EDCF3869577956795AF
:101B3000B795F7959F5FC9F7880F911D9695879583
:101B400097F90895E1E0660F771F881FBB1F6217A2
:101B500073078407BA0720F0621B730B840BBA0B60
:101B6000EE1F88F7E095089504D06894B111D9C0AC
:101B70000895BCD088F09F5790F0B92F9927B7519E
:101B8000A0F0D1F0660F771F881F991F1AF0BA9541
:101B9000C9F712C0B13081F0C3D0B1E00895C0C020
:101BA000672F782F8827B85F39F0B93FCCF3869537
:101BB00077956795B395D9F73EF490958095709594
:101BC00061957F4F8F4F9F4F0895E89409C097FB11
:101BD0003EF490958095709561957F4F8F4F9F4F04
:101BE0009923A9F0F92F96E9BB279395F695879548
:101BF00077956795B795F111F8CFFAF4BB0F11F40B
:101C000060FF1BC06F5F7F4F8F4F9F4F16C08823B1
:101C100011F096E911C0772321F09EE8872F762FE7
:101C200005C0662371F096E8862F70E060E02AF028
:101C30009A95660F771F881FDAF7880F9695879514
:101C400097F90895990F0008550FAA0BE0E8FEEFE9
:101C500016161706E807F907C0F012161306E40770
:101C6000F50798F0621B730B840B950B39F40A2669
:101C700061F0232B242B252B21F408950A2609F447
:101C8000A140A6958FEF811D811D089597F99F674B
:101C900080E870E060E008959FEF80EC08950024F4
:101CA0000A941616170618060906089500240A94C1
:101CB00012161306140605060895092E0394000C47
:101CC00011F4882352F0BB0F40F4BF2B11F460FFD6
:101CD00004C06F5F7F4F8F4F9F4F089557FD9058FF
:101CE000440F551F59F05F3F71F04795880F97FBE0
:101CF000991F61F09F3F79F087950895121613069A
:101D00001406551FF2CF4695F1DF08C016161706C8
:101D10001806991FF1CF86957105610508940895FD
:101D2000E894BB2766277727CB0197F908958ADFC8
:101D300008F48FEF08950BD0C0CFB1DF28F0B6DFE5
:101D400018F0952309F0A2CFA7CF1124EACFC6DF60
:101D5000A0F3959FD1F3950F50E0551F629FF001BE
:101D6000729FBB27F00DB11D639FAA27F00DB11D17
:101D7000AA1F649F6627B00DA11D661F829F2227A0
:101D8000B00DA11D621F739FB00DA11D621F839F27
:101D9000A00D611D221F749F3327A00D611D231FFD
:101DA000849F600D211D822F762F6A2F11249F574B
:101DB00050408AF0E1F088234AF0EE0FFF1FBB1F6E
:101DC000661F771F881F91505040A9F79E3F51050D
:101DD00070F05CCFA6CF5F3FECF3983EDCF38695C6
:101DE00077956795B795F795E7959F5FC1F7FE2BB8
:101DF000880F911D9695879597F9089511F40EF423
:101E00004BCF42C073DFD0F39923D9F3CEF39F5762
:101E1000550B87FF47D00024A0E640EA9001805888
:101E20005695979528F4805C660F771F881F20F0E1
:101E300026173707480730F4621B730B840B2029E1
:101E400031294A2BA69517940794202531254A2736
:101E500058F7660F771F881F20F0261737074807A7
:101E600030F4620B730B840B200D311D411DA095C6
:101E700081F7B901842F9158880F96958795089519
:101E8000E1DE880B990B08959F3F31F0915020F4CB
:101E9000879577956795B795880F911D9695879546
:101EA00097F9089591505040660F771F881FD2F719
:101EB0000895A1E21A2EAA1BBB1BFD010DC0AA1F8B
:101EC000BB1FEE1FFF1FA217B307E407F50720F0A3
:101ED000A21BB30BE40BF50B661F771F881F991F1E
:101EE0001A9469F760957095809590959B01AC0167
:101EF000BD01CF010895EE0FFF1F0590F491E02D75
:0E1F000009940790F691E02D0994F894FFCF14
:101F0E00535441525441534D00454E4441534D009C
:101F1E006E616E00696E66006F7666002E000000C0
:0E1F2E0000002C04C001D8030104E8032104C4
:00000001FF
