:100000000C9420010C944F010C944F010C944F015F
:100010000C944F010C944F010C944F010C944F0120
:100020000C944F010C944F010C944F010C944F0110
:100030000C944F010C944F010C944F010C944F0100
:100040000C944F010C944F010C944F010C944F01F0
:100050000C944F010C944F010C944F010C94940399
:100060000C944F010C947A080C946A090C944F017B
:100070000C944F010C944F010C944F010C944F01C0
:100080000C944F010C944F010C944F010C944F01B0
:100090000C94AE080C94A9090C944F010C944F01D8
:1000A0000C944F010C944F010C944F010C944F0190
:1000B0000C944F010C944F010C944F010C944F0180
:1000C0000C944F010C944F010C944F010C94E208D6
:1000D0000C94E8090C944F010C9416090C94270A0F
:1000E0000C944F01AA04AD04A004A404E404B104D8
:1000F000B504BB04BF04C304C904CD04D104E404A3
:10010000D704DB04DF040000090A02080B0C0D070A
:1001100006030401000000000000000000000000D1
:1001200000000000000000000000000000000000CF
:10013000000011100F00000000000000000000008F
:10014000000000000000000000000000010210207C
:1001500020080810204010204080020102010804FD
:100160000201010204081020408080402010080491
:1001700002018004020180402010080402010804EA
:10018000020101020408102040800102040810202E
:100190004080050505050705080808080202020257
:1001A0000A0A080804040404010101010101010113
:1001B0000303030303030303040707070C0C0C0CDE
:1001C0000C0C0C0C020202020606060606060606C7
:1001D0000B0B0B0B0B0B0B0B00002000230026005E
:1001E00029002C002F00320000010000030106014D
:1001F000090100002200250028002B002E003100FC
:10020000340002010000050108010B01000021007B
:10021000240027002A002D003000330001010000D7
:10022000040107010A017C3C3E5E2B3D3F2F5B5DD4
:100230003B2C2A225C003502E70ABD0E97114302CF
:1002400011241FBECFEFD1E2DEBFCDBF12E0A0E090
:10025000B2E0EAE9FBE400E00BBF02C007900D92B8
:10026000A039B107D9F727E0A0E9B2E001C01D929B
:10027000AE3BB207E1F712E0CEE3D2E000E006C009
:1002800022970109FE010BBF0E94A825C633D107A2
:1002900080E00807A9F70E94C2070C94CE220C94B4
:1002A0000000EF92FF920F931F93CF93DF93CDB790
:1002B000DEB76B970FB6F894DEBF0FBECDBF40E040
:1002C00052EC61E070E080E293E00E94660A60E038
:1002D00070E08DEA92E00E94850D61E0809111024C
:1002E0000E94E50461E080910F020E94E50461E054
:1002F00080910D020E94E50461E080910B020E9452
:10030000E50461E0809107020E94E5046091070224
:1003100088E695E00E94ED0F811106C06EE172E063
:1003200080E293E00E94FD056CE372E080E092E0E1
:100330000E94E922109206028DE0E82E90E3F92E49
:1003400001E010E08091900290919102892B09F0D8
:100350006DC0F0920402809104028A339CF7F092FF
:100360000502809105028A330CF053C060E072E010
:1003700088E695E00E948C1181113FC023E140E0A6
:1003800052E068E675E0CE0101960E9406118B816D
:100390009C8190939502809394028D819E81AF8180
:1003A000B8858093960290939702A0939802B09399
:1003B000990289859A85AB85BC8580939A02909332
:1003C0009B02A0939C02B0939D02FE013D96AEE974
:1003D000B2E08E2D01900D928A95E1F78A8D9B8D6A
:1003E0009093AC028093AB02CE0101960E948B12D7
:1003F00010939102009390020CC080919002909112
:100400009102019731F0809105028F5F8093050280
:10041000A8CF8091900290919102019709F492CF18
:10042000809104028F5F8093040295CF60ED77E0A6
:1004300080E090E00E940D0463E472E080E293E0CB
:100440000E94E00560E072E080E293E00E94FD051A
:100450006B960FB6F894DEBF0FBECDBFDF91CF9184
:100460001F910F91FF90EF9008950F9300E32EE2FC
:100470004CE26AE28DEA92E00E94480C82E992E046
:100480000F910C94781282E992E00C948B120F93E6
:100490001F93CF93DF9382E992E00E94E0128823BA
:1004A00009F44EC08DEA92E00E94BD0D80E00E94EA
:1004B0007D05EC014AE050E0BC0180E293E00E943F
:1004C000BF0665E572E080E293E00E94E00500E08F
:1004D00010E027ED33E440E050E068EC72E48DEA90
:1004E00092E00E94E50DAB01BC0122E030E080E229
:1004F00093E00E94B0074AE050E0BE0182E992E03A
:100500000E94BF0668E572E082E992E00E94E00581
:1005100000E010E027ED33E440E050E068EC72E4E6
:100520008DEA92E00E94E50DAB01BC0122E030E0D3
:1005300082E992E00E94B00782E992E00E94EB110A
:1005400061E0809111020E941E0560E080910F021F
:100550000E941E0560E080910D020E941E0560E071
:1005600080910B020E941E056091090270910A029F
:10057000882777FD8095982F0E940D0461E0809177
:1005800011020E941E0561E080910F020E941E056B
:1005900060E080910D020E941E0560E080910B02D8
:1005A0000E941E056091090270910A02882777FD5A
:1005B0008095982F0E940D0460E0809111020E94A6
:1005C0001E0561E080910F020E941E0560E080918F
:1005D0000D020E941E0560E080910B020E941E0524
:1005E0006091090270910A02882777FD8095982F03
:1005F0000E940D0460E0809111020E941E0561E0DE
:1006000080910F020E941E0561E080910D020E9400
:100610001E0560E080910B020E941E056091090298
:1006200070910A02882777FD8095982F0E940D040B
:1006300060E0809111020E941E0560E080910F022F
:100640000E941E0561E080910D020E941E0560E07F
:1006500080910B020E941E056091090270910A02AE
:10066000882777FD8095982F0E940D0460E0809187
:1006700011020E941E0560E080910F020E941E057B
:1006800061E080910D020E941E0561E080910B02E5
:100690000E941E056091090270910A02882777FD69
:1006A0008095982F0E940D0460E0809111020E94B5
:1006B0001E0560E080910F020E941E0560E080919F
:1006C0000D020E941E0561E080910B020E941E0532
:1006D0006091090270910A02882777FD8095982F12
:1006E0000E940D0461E0809111020E941E0560E0ED
:1006F00080910F020E941E0560E080910D020E9411
:100700001E0561E080910B020E941E0560910902A6
:1007100070910A02882777FD8095982FDF91CF91FD
:100720001F910F910C940D041F920F920FB60F9210
:1007300011242F933F938F939F93AF93BF938091F7
:10074000B2029091B302A091B402B091B50230917F
:10075000B10223E0230F2D3720F40196A11DB11D16
:1007600005C026E8230F0296A11DB11D2093B102FA
:100770008093B2029093B302A093B402B093B502F7
:100780008091B6029091B702A091B802B091B902DF
:100790000196A11DB11D8093B6029093B702A0935C
:1007A000B802B093B902BF91AF919F918F913F91E1
:1007B0002F910F900FBE0F901F9018952FB7F894A0
:1007C0006091B2027091B3028091B4029091B5022F
:1007D0002FBF08953FB7F8948091B6029091B70269
:1007E000A091B802B091B90226B5A89B05C02F3FD1
:1007F00019F00196A11DB11D3FBF6627782F892FE3
:100800009A2F620F711D811D911D42E0660F771FA7
:10081000881F991F4A95D1F70895CF92DF92EF92E2
:10082000FF92CF93DF936B017C010E94EA03EB01FF
:10083000C114D104E104F10479F00E94EA036C1BB5
:100840007D0B683E7340A0F381E0C81AD108E1082F
:10085000F108C851DC4FECCFDF91CF91FF90EF90C2
:10086000DF90CF900895789484B5826084BD84B57C
:10087000816084BD85B5826085BD85B5816085BD9B
:10088000EEE6F0E0808181608083E1E8F0E01082B4
:10089000808182608083808181608083E0E8F0E0F5
:1008A000808181608083E1EBF0E0808184608083DF
:1008B000E0EBF0E0808181608083E1E9F0E080811D
:1008C00082608083808181608083E0E9F0E08081C4
:1008D00081608083E1EAF0E08081826080838081B2
:1008E00081608083E0EAF0E0808181608083E1E2E2
:1008F000F1E0808182608083808181608083E0E29A
:10090000F1E0808181608083EAE7F0E080818460AB
:100910008083808182608083808181608083808108
:10092000806880831092C100089590E0FC013197A7
:10093000E131F10508F048C0EE58FF4F0C949725BF
:10094000809180008F7703C0809180008F7D80939D
:100950008000089584B58F7702C084B58F7D84BDF3
:1009600008958091B0008F7703C08091B0008F7D93
:100970008093B0000895809190008F7707C0809198
:1009800090008F7D03C080919000877F80939000BE
:1009900008958091A0008F7707C08091A0008F7D7F
:1009A00003C08091A000877F8093A000089580916C
:1009B00020018F7707C0809120018F7D03C0809137
:1009C0002001877F809320010895CF93DF9390E0EB
:1009D000FC01E45BFE4F2491FC01EE56FE4F849136
:1009E000882349F190E0880F991FFC01E45FFD4FD7
:1009F000A591B4918E509E4FFC01C591D4919FB7A3
:100A0000611108C0F8948C91209582238C93888181
:100A100082230AC0623051F4F8948C91322F3095C1
:100A200083238C938881822B888304C0F8948C91D3
:100A3000822B8C939FBFDF91CF9108950F931F93CB
:100A4000CF93DF931F92CDB7DEB7282F30E0F901A7
:100A5000EA5FFE4F8491F901E45BFE4F1491F901C6
:100A6000EE56FE4F04910023C9F0882321F06983DC
:100A70000E9495046981E02FF0E0EE0FFF1FEE5019
:100A8000FE4FA591B4919FB7F8948C91611103C06A
:100A90001095812301C0812B8C939FBF0F90DF9114
:100AA000CF911F910F910895CF93DF93282F30E0BE
:100AB000F901EA5FFE4F8491F901E45BFE4FD491A6
:100AC000F901EE56FE4FC491CC2391F081110E94A2
:100AD0009504EC2FF0E0EE0FFF1FE852FE4FA591BA
:100AE000B4912C912D2381E090E021F480E002C0AC
:100AF00080E090E0DF91CF910895863308F086532F
:100B000020917B00982F9870277F922B90937B00E9
:100B100087702091130290E4299F90011124822B69
:100B200080937C0080917A00806480937A00809129
:100B30007A0086FDFCCF809178002091790090E0CA
:100B4000922B0895CF92DF92EF92FF920F931F9313
:100B5000CF93DF936C017A01EB01E60EF71E00E004
:100B600010E0CE15DF0561F06991D601ED91FC91A1
:100B70000190F081E02DC6010995080F191FF1CFF2
:100B8000C801DF91CF911F910F91FF90EF90DF90FF
:100B9000CF9008956115710581F0DB010D90002063
:100BA000E9F7AD0141505109461B570BDC01ED91AE
:100BB000FC910280F381E02D099480E090E008959B
:100BC0000C94CA05DC01ED91FC910190F081E02DBF
:100BD00009940F931F93CF93DF93EC016DE00E9474
:100BE000E2058C016AE0CE010E94E205800F911FB0
:100BF000DF91CF911F910F9108950F931F93CF9382
:100C0000DF93EC010E94CA058C01CE010E94E90528
:100C1000800F911FDF91CF911F910F9108958F92B7
:100C20009F92AF92BF92CF92DF92EF92FF920F937B
:100C30001F93CF93DF93CDB7DEB7A1970FB6F8948C
:100C4000DEBF0FBECDBF7C01C42EE52FCB01D22E5F
:100C500019A221E02D1510F02AE0D22E8E010F5D91
:100C60001F4F8D2C912CA12CB12C6C2D7E2FA5010A
:100C700094010E9475258C2DD29E8019112401505B
:100C800011098A3014F4805D01C0895CF801808309
:100C9000211531054105510521F0C22EE32FCA016E
:100CA000E4CFB801C7010E94CA05A1960FB6F89417
:100CB000DEBF0FBECDBFDF91CF911F910F91FF908F
:100CC000EF90DF90CF90BF90AF909F908F9008955E
:100CD000CF92DF92EF92FF920F931F93CF93DF9308
:100CE000EC016A017B012115310579F4E881F98174
:100CF0000190F081E02D642FDF91CF911F910F9132
:100D0000FF90EF90DF90CF9009942A303105E9F4FD
:100D100077FF1AC06DE20E94E2058C014427552737
:100D2000BA014C195D096E097F092AE0CE010E94C3
:100D30000F06800F911FDF91CF911F910F91FF90B0
:100D4000EF90DF90CF9008952AE0B701A601CE0181
:100D5000DF91CF911F910F91FF90EF90DF90CF9097
:100D60000C940F062115310541F4DC01ED91FC9145
:100D70000190F081E02D642F09940C940F069A01E4
:100D8000AB0160E070E00C94B2064F925F926F92FC
:100D90007F928F929F92AF92BF92CF92DF92EF920B
:100DA000FF920F931F93CF93DF93EC016A017B01B6
:100DB000B22E9A01AB01C701B6010E945C258823BF
:100DC00019F06AE572E027C026013701E89477F848
:100DD0002FEF3FEF4FE75FE7C301B2010E945C25B1
:100DE00081110DC02FEF3FEF4FE75FE7C301B20165
:100DF0000E94642318161CF46EE572E00CC02FEFFD
:100E00003FEF4FE75FE4C701B6010E94B324181615
:100E1000ACF462E672E0CE01DF91CF911F910F91A9
:100E2000FF90EF90DF90CF90BF90AF909F908F900A
:100E30007F906F905F904F900C94CA052FEF3FEF1B
:100E40004FE75FECC701B6010E94642387FDE1CF45
:100E500020E030E0A901C701B6010E94642387FFAA
:100E60000AC06DE2CE010E94E2058C01F7FAF0940F
:100E7000F7F8F09402C000E010E0A12C60E070E010
:100E800080E09FE3AB1441F020E030E040E251E429
:100E90000E946823A394F6CF9B01AC01C701B60161
:100EA0000E9400236B017C010E94D5232B013C0191
:100EB0000E9401249B01AC01C701B6010E94FF22E0
:100EC0006B017C012AE0B301A201CE010E940F0652
:100ED000080F191FBB2039F06AE372E0CE010E94AF
:100EE000CA05080F191F7B2C772041F120E030E064
:100EF00040E251E4C701B6010E94B7246B017C01B6
:100F00000E94D0234B01AA2497FCA094BA2C2AE07B
:100F100030E0B501A401CE010E946806080F191F38
:100F2000C501B4010E9403249B01AC01C701B601B5
:100F30000E94FF226B017C017A94D6CFC801DF9119
:100F4000CF911F910F91FF90EF90DF90CF90BF90C6
:100F5000AF909F908F907F906F905F904F9008958B
:100F60000F931F93CF93DF93EC010E94C5068C0172
:100F7000CE010E94E905800F911FDF91CF911F9153
:100F80000F9108950E9433040E945101C9E4D9E0F1
:100F90000E9447022097E1F30E944909F9CFFC0122
:100FA00024853585F901E05CFF4F8081918132967F
:100FB00020813181821B930B8F7399270895FC0147
:100FC00084859585FC01E05CFF4F4081518132961C
:100FD000208131814217530741F00190F081E02DCB
:100FE000E80FF91F808190E008958FEF9FEF08953B
:100FF000FC0184859585FC01E05CFF4F40815181B7
:101000003296208131814217530779F0A081B18156
:10101000A80FB91F8C91208131812F5F3F4F2F7313
:1010200033273183208390E008958FEF9FEF089559
:10103000FC0181A1882329F0A489B5898C9186FFC0
:10104000FBCF11A20895CF93DF93FC01268537854E
:10105000D901A05CBF4F8D919C91119701968F7320
:101060009927E901CE5BDF4F4881598184179507A5
:10107000D9F30D90BC91A02DA20FB31F6C93A68540
:10108000B785A05CBF4F11969C938E93A689B789B4
:101090002C9181E090E0078C02C0880F991F0A9480
:1010A000E2F7282B2C9381E081A30488F589E02DB9
:1010B00080818064808381E090E0DF91CF9108950A
:1010C000FB01E05CFF4F208131812F5F3F4F2F7389
:1010D0003327DB01AE5BBF4F4D915C912417350781
:1010E00039F0A081B181A60FB71F8C933183208383
:1010F000089508951F920F920FB60F9211240BB608
:101100000F922F933F934F935F936F937F938F93A0
:101110009F93AF93BF93EF93FF938091C00082FDA5
:1011200007C08091C6006EE175E00E94600802C0B1
:101130008091C600FF91EF91BF91AF919F918F91E8
:101140007F916F915F914F913F912F910F900BBEC7
:101150000F900FBE0F901F90189508951F920F9239
:101160000FB60F9211240BB60F922F933F934F930C
:101170005F936F937F938F939F93AF93BF93EF93FF
:10118000FF938091C80082FD07C08091CE0066E980
:1011900074E00E94600802C08091CE00FF91EF9140
:1011A000BF91AF919F918F917F916F915F914F917F
:1011B0003F912F910F900BBE0F900FBE0F901F907D
:1011C000189508951F920F920FB60F9211240BB627
:1011D0000F922F933F934F935F936F937F938F93D0
:1011E0009F93AF93BF93EF93FF938091D00082FDC5
:1011F00007C08091D6006EE074E00E94600802C0D3
:101200008091D600FF91EF91BF91AF919F918F9107
:101210007F916F915F914F913F912F910F900BBEF6
:101220000F900FBE0F901F90189508951F920F9268
:101230000FB60F9211240BB60F922F933F934F933B
:101240005F936F937F938F939F93AF93BF93EF932E
:10125000FF938091300182FD07C08091360166E8DE
:1012600073E00E94600802C080913601FF91EF9107
:10127000BF91AF919F918F917F916F915F914F91AE
:101280003F912F910F900BBE0F900FBE0F901F90AC
:10129000189580E293E00E94CF07892B11F00E94FD
:1012A00079088EEF92E00E94CF07892B11F00E94FF
:1012B000AD088CED92E00E94CF07892B11F00E94BF
:1012C000E1088AEB92E00E94CF07892B11F00C9481
:1012D000150908951F920F920FB60F9211240BB6A5
:1012E0000F922F933F938F939F93EF93FF932091B0
:1012F0001A0530911B0580911C0590911D0528173A
:10130000390731F48091C1008F7D8093C10014C0F2
:10131000E0911C05F0911D05E652FB4F2081809164
:101320001C0590911D0501968F73992790931D05BB
:1013300080931C052093C600FF91EF919F918F91A0
:101340003F912F910F900BBE0F900FBE0F901F90EB
:1013500018951F920F920FB60F9211240BB60F9291
:101360002F933F938F939F93EF93FF93209192043A
:101370003091930480919404909195042817390733
:1013800031F48091C9008F7D8093C90014C0E09131
:101390009404F0919504EE5AFB4F208180919404BF
:1013A0009091950401968F7399279093950480935B
:1013B00094042093CE00FF91EF919F918F913F91E4
:1013C0002F910F900BBE0F900FBE0F901F9018958E
:1013D0001F920F920FB60F9211240BB60F922F93FC
:1013E0003F938F939F93EF93FF9320910A04309143
:1013F0000B0480910C0490910D042817390731F4E7
:101400008091D1008F7D8093D10014C0E0910C04B5
:10141000F0910D04E653FC4F208180910C049091D3
:101420000D0401968F73992790930D0480930C04FB
:101430002093D600FF91EF919F918F913F912F9133
:101440000F900BBE0F900FBE0F901F9018951F921C
:101450000F920FB60F9211240BB60F922F933F935A
:101460008F939F93EF93FF93209182033091830397
:1014700080918403909185032817390731F4809176
:1014800031018F7D8093310114C0E0918403F0918C
:101490008503EE5BFC4F208180918403909185034E
:1014A00001968F73992790938503809384032093EB
:1014B0003601FF91EF919F918F913F912F910F9066
:1014C0000BBE0F900FBE0F901F901895CF92DF921A
:1014D000EF92FF92CF93DF93EC016A017B014115FC
:1014E00081EE580761057105F9F0EC89FD8981E00D
:1014F00090E008A002C0880F991F0A94E2F7808349
:1015000060E079E08DE390E0A70196010E947525E7
:10151000215031094109510956954795379527952D
:10152000211580E1380798F0EC89FD89108260E888
:1015300074E88EE190E0A70196010E947525215084
:101540003109410951095695479537952795E889FD
:10155000F9893083EA89FB89208319A2EE89FF8902
:10156000408181E090E09C010C8C02C0220F331F6F
:101570000A94E2F7422B4083EE89FF8940819C0167
:101580000D8C02C0220F331F0A94E2F7422B4083D6
:10159000EE89FF8940819C010E8C02C0220F331F0F
:1015A0000A94E2F7422B4083EE89FF8920810F8C59
:1015B00002C0880F991F0A94E2F7809582238083E6
:1015C000DF91CF91FF90EF90DF90CF900895CF9370
:1015D000109223031092220388EE93E0A0E0B0E083
:1015E0008093240390932503A0932603B0932703AD
:1015F0002AE632E030932103209320034EE155E0A8
:1016000050932D0340932C034AED54E050932F0345
:1016100040932E0345EC50E0509331034093300348
:1016200044EC50E0509333034093320340EC50E0DD
:10163000509335034093340341EC50E0509337030B
:101640004093360342EC50E0509339034093380303
:1016500046EC50E050933B0340933A03C4E0C09300
:101660003C03F3E0F0933D03E7E0E0933E0375E0D5
:1016700070933F0361E06093400310920103109266
:1016800000038093020390930303A0930403B09399
:1016900005033093FF022093FE0246E954E0509385
:1016A0000B0340930A0342E554E050930D0340932B
:1016B0000C034DEC50E050930F0340930E034CECA1
:1016C00050E0509311034093100348EC50E05093C6
:1016D00013034093120349EC50E0509315034093D9
:1016E00014034AEC50E050931703409316034EEC5A
:1016F00050E05093190340931803C0931A03F093DA
:101700001B03E0931C0370931D0360931E03109250
:10171000DF021092DE028093E0029093E102A09338
:10172000E202B093E3023093DD022093DC024EE04C
:1017300054E05093E9024093E8024AEC53E050939E
:10174000EB024093EA0245ED50E05093ED024093E6
:10175000EC0244ED50E05093EF024093EE0240ED76
:1017600050E05093F1024093F00241ED50E050936D
:10177000F3024093F20242ED50E05093F5024093A1
:10178000F40246ED50E05093F7024093F602C09306
:10179000F802F093F902E093FA027093FB0260936F
:1017A000FC021092BD021092BC028093BE02909384
:1017B000BF02A093C002B093C1023093BB0220933A
:1017C000BA0286E893E09093C7028093C60282E44F
:1017D00093E09093C9028093C80285E391E09093CF
:1017E000CB028093CA0284E391E09093CD02809370
:1017F000CC0280E391E09093CF028093CE0281E30C
:1018000091E09093D1028093D00282E391E0909393
:10181000D3028093D20286E391E09093D502809325
:10182000D402C093D602F093D702E093D80270930B
:10183000D9026093DA02CF910895209166052223A0
:1018400099F03FB7F89420916605213059F42DB3F3
:10185000209364054DB320916505209524232DBB6D
:101860003FBF02C0309364058CBD9DBD089580913B
:101870006605882361F09FB7F894209166058091F2
:101880006405213019F48DBB9FBF08958FBF089563
:101890000F93FC0100836383218342830F9108959A
:1018A000AF92BF92DF92EF92FF920F931F93CF936D
:1018B000DF931F92CDB7DEB75C01D62EFC0180818D
:1018C0008F3F39F46EBD00000DB407FEFDCF8EB51D
:1018D0002AC007E010E040E0EE24E394F12C440F2E
:1018E00061E0F501808149830E941E059701002E69
:1018F00001C0220F0A94EAF76D2D6223F50182815F
:101900000E941E0560E0F50180810E941E05F50120
:1019100081810E9454054981892B09F04160015061
:101920001109E8F6842F0F90DF91CF911F910F914D
:10193000FF90EF90DF90BF90AF900895DF92EF920D
:10194000FF920F931F93CF93DF93EC01162FF42E8A
:10195000D52EE22E1F7788818F3F39F48091620562
:10196000909163050E941D0C03C060E00E941E055B
:1019700060E08B810E941E05612FCE010E94500CF9
:101980000F2D1D2DFE0CF01641F06FEFCE010E94C1
:10199000500CF80181938F01F6CF88818F3F11F4AD
:1019A0000E94370C61E08B81DF91CF911F910F91E5
:1019B000FF90EF90DF900C941E05CF93DF931F9262
:1019C000CDB7DEB7198221E0AE014F5F5F4F0E94B5
:1019D0009E0C89810F90DF91CF910895CF93DF9373
:1019E00000D0CDB7DEB719821A8222E0AE014F5F78
:1019F0005F4F0E949E0C898190E0982F88272A8152
:101A0000822B0F900F90DF91CF9108950F931F932A
:101A1000CF93DF93EC01062F142F88818F3F39F489
:101A200080916205909163050E941D0C03C060E0E7
:101A30000E941E0560E08B810E941E05602F606879
:101A4000CE010E94500C612FCE010E94500C888163
:101A50008F3F11F40E94370C61E08B81DF91CF91B1
:101A60001F910F910C941E05CF93DF93EC0160E062
:101A70000E94DD0C482F437D426060E0CE01DF9183
:101A8000CF910C94060D1F93CF93DF93EC01162F8B
:101A900060E00E94DD0C482F112311F0406801C066
:101AA0004F7760E0CE01DF91CF911F910C94060D2E
:101AB0001F93CF93DF93EC01162F60E00E94DD0CA3
:101AC000482F112311F0406401C04F7B60E0CE012C
:101AD000DF91CF911F910C94060D0F931F93CF931D
:101AE000DF93EC018B0160E00E94DD0C482F013098
:101AF000110511F4406101C04F7E60E0CE01DF911D
:101B0000CF911F910F910C94060D0F931F93CF93BC
:101B1000DF93EC018B0161E08B810E94E50461E0C1
:101B20008B810E941E0588818F3F81F061E00E94B9
:101B3000E50460E088810E941E0561E08A810E94C0
:101B4000E50460E089810E94E50402C00E94C40EA1
:101B5000B801CE010E946D0D60E0CE010E94430DE0
:101B600060E0CE010E94580DCE010E94340D81E04C
:101B7000DF91CF911F910F910895CF93DF93EC01E7
:101B80000E94340D61E0CE010E94430D6AE070E0D6
:101B900080E090E00E940D0460E0CE010E94DD0C28
:101BA000482F406260E0CE010E94060D61E470E0C3
:101BB00080E090E00E940D0461E0CE010E94EE0CF6
:101BC00096958795DF91CF9108954F925F926F928E
:101BD0007F928F929F92AF92BF92CF92DF92EF92BD
:101BE000FF920F931F93CF93DF934A015B0168012C
:101BF00079010E94BD0DBC0180E090E00E940124AB
:101C000020E030E040E058E30E94B724A7019601AD
:101C10000E94B7242B013C01A50194016FE775E0F8
:101C20008BE196EB0E946823A30192010E94B724E6
:101C300026E133E843E957E30E9400230E941E2572
:101C400022E331E140E85BE30E94FF222FE735E029
:101C50004BE955EB0E9468238B01D82FC92F20E058
:101C600030E0A9010E94B32487FF73C0A50194014D
:101C7000C301B2010E94682320E030E048EC52E446
:101C80000E94B7246B017C012BE532E44EE050E466
:101C90000E94B7242FE135E042E753EC0E94002375
:101CA0002B013C01A7019601C701B6010E94B72490
:101CB0004B015C0124E338E749E25BE30E94B7246F
:101CC0009B01AC01C301B2010E9400232B013C0126
:101CD000A7019601C501B4010E94B7244B015C0124
:101CE00026E03FEE41EA56E30E94B7249B01AC0197
:101CF000C301B2010E94FF222B013C01A701960102
:101D0000C501B4010E94B7244B015C0123E137E116
:101D100042EF52E30E94B7249B01AC01C301B20120
:101D20000E94FF222B013C01A7019601C501B401CD
:101D30000E94B7242BE339E947E25FE20E94B7240F
:101D40009B01AC01C301B2010E9400238B01D82F7B
:101D5000C92FB8018D2F9C2FDF91CF911F910F912B
:101D6000FF90EF90DF90CF90BF90AF909F908F90BB
:101D70007F906F905F904F90089586E58093620505
:101D800081E0809363050895CF93CFB7F894809155
:101D90006705811127C0E7ECF1E08491E1E8F1E00B
:101DA0009491E82FF0E0EE0FFF1FE45FFD4FA59147
:101DB000B4918C91892321F461E085E30E941E0592
:101DC00061E085E30E94E5048CB580618CBD8CB533
:101DD00080648CBD61E084E30E94E50461E083E3FC
:101DE0000E94E504809167058F5F80936705CFBFF0
:101DF000CF9108951F93CF93DF93CDB7DEB76D9743
:101E00000FB6F894DEBF0FBECDBFAB011C821B82A4
:101E10002CE832E03A8329831E8221E0BC01CE0106
:101E200001960E948317182F882321F0CE01019676
:101E30000E944F16812F6D960FB6F894DEBF0FBE2D
:101E4000CDBFDF91CF911F910895CF93DF93FB0119
:101E500020813181FC01E20FF31FE081EF3211F4A8
:101E60002F5F3F4FDA01E0E0F0E0EC01C20FD31F3B
:101E7000C881CF3249F0CC2339F031962F5F3F4FE4
:101E8000CD93EC30F10589F7E40FF51F1082FC01CA
:101E9000E20FF31F40814F3211F42F5F3F4FFB01E0
:101EA00031832083FC01E20FF31F81E090819111C7
:101EB00001C080E0DF91CF9108954F925F926F92C1
:101EC0007F928F929F92AF92BF92CF92DF92EF92CA
:101ED000FF920F931F93CF93DF93CDB7DEB7C95413
:101EE000D1090FB6F894DEBF0FBECDBF5C016B0108
:101EF0003A01490119A218A28CE892E09F8F8E8FB7
:101F00001BA21C821B829A8389831E822A961FAE83
:101F10001EAE2A978B017E018EE1E80EF11C44244F
:101F20004394AE01455C5F4FBE01685B7F4FC501C6
:101F30000E94250F582E482F44259401BE01655C50
:101F40007F4FC801F3010995811108C00C151D05CB
:101F500019F0C8010E944F1680E027C05520B9F043
:101F600021E0AE01455C5F4FB801C7010E948317B5
:101F7000582E0C151D0599F0C8010E944F165520CA
:101F800059F3902F812F8701E92EF82ECACF0C1517
:101F90001D0519F0C8010E944F1681E006C0882374
:101FA000D9F28E010F5F1F4FECCFC75BDF4F0FB62B
:101FB000F894DEBF0FBECDBFDF91CF911F910F917F
:101FC000FF90EF90DF90CF90BF90AF909F908F9059
:101FD0007F906F905F904F9008950F931F93CF93D2
:101FE000DF93EC01462F61E00E94EB1A811102C0E1
:101FF00080E01DC08E01045F1F4F41E0BE01C8019B
:102000000E949320882359F0B801CE018A960E943D
:10201000C91391E0811101C090E0892F08C040E010
:10202000BE01C8010E949320882311F3EDCFDF91F8
:10203000CF911F910F910895FC01DB0112968D91B4
:102040009C911397938382838CE892E091838083A1
:1020500014968C911497848315968C91159785838B
:1020600016964D915D916D917C911997468357839A
:10207000608771871A964D915D916D917C911D9746
:1020800042875387648775871E964D915D916D9148
:102090007C91519746875787608B718B52968C91B4
:1020A0005297828B53964D915D916D917C9156978D
:1020B000438B548B658B768B57964D915D916D91CB
:1020C0007C915A97478B508F618F728F5B968D9161
:1020D0009C915C97948F838F08954F925F926F923B
:1020E0007F928F929F92AF92BF92CF92DF92EF92A8
:1020F000FF920F931F93CF93DF93CDB7DEB7C754F3
:10210000D1090FB6F894DEBF0FBECDBF6C014A01F6
:102110003901665D7F4F5E018EE1A80EB11CC501DD
:102120000E941C101C821B828CE892E09A83898397
:102130001E828401FE0131967F015A2C4B2C6FE2E6
:1021400070E0C8010E94DE220097E9F1F8012081C9
:102150002F3219F40F5F1F4FF2CF801B8D3008F024
:102160008CE0A82EB12CA501B801CE01CB960E941F
:10217000F022EBE3F0E0EC0FFD1FEA0DFB1D1082F7
:10218000C7010E944F1621E0AE01455C5F4F652DEF
:10219000742DC7010E948317811109C0F6011382B3
:1021A00012828CE892E091838083158216C00A0D1A
:1021B0001B1D852D942D0E944F16C2015E2C4F2CA5
:1021C000E92EF82EBCCF08191909F30111830083F9
:1021D000652D742DC6010E941C10C601C95BDF4F1E
:1021E0000FB6F894DEBF0FBECDBFDF91CF911F9128
:1021F0000F91FF90EF90DF90CF90BF90AF909F90A6
:102200008F907F906F905F904F900895BF92CF9284
:10221000DF92EF92FF920F931F93CF93DF93CDB78F
:10222000DEB7C955D1090FB6F894DEBF0FBECDBFDA
:102230007C016A01B22E9E01285A3F4FCE01CB96F7
:102240000E946D106A960EAD1FAD6A970C0D1D1D94
:10225000F801808181110AC0BE01655C7F4FCE010B
:1022600001960E941C1046E752E03EC019A218A237
:102270008CE892E09F8F8E8F1BA221968FAD2197C5
:10228000811104C0C7010E94781234C082502B2DE6
:10229000A801823048F462E975E0CE014E960E94B2
:1022A000831781110EC0EECFBE01655C7F4FCE015A
:1022B0004E960E948317882329F3CE01CB960E9465
:1022C0004F168B2D867041F049A95AA96BA97CA99C
:1022D000CE014E960E946C15BE01625E7F4FCE010C
:1022E00001960E941C10A801BE016F5F7F4FC701BD
:1022F0000E943F12C701C75ADF4F0FB6F894DEBFE6
:102300000FBECDBFDF91CF911F910F91FF90EF9046
:10231000DF90CF90BF900895FB01BC01665D7F4FB9
:1023200020E030E04AEF5EE0CF010C945D0F1092A8
:102330006D0510926E05109271051092730582E082
:1023400090E0A0E0B0E08093740590937505A093B1
:102350007605B093770510928B0510929505109233
:1023600094058CE892E090939305809392051092E7
:1023700097050895CF93DF931F92CDB7DEB769839A
:10238000DC01ED91FC910280F381E02D41E050E011
:10239000BE016F5F7F4F09950F90DF91CF91089538
:1023A000CF93DF93EC01898D9A8D009759F0FC0152
:1023B000138212820E946818E98DFA8D228133817E
:1023C000232B31F081E090E09B838A8380E090E0D2
:1023D000DF91CF910895FC01818D928D009711F0CE
:1023E0000C9408160895CF93DF931F92CDB7DEB7F4
:1023F00041E050E0BE016F5F7F4F0E9419140197CA
:1024000019F4898190E002C08FEF9FEF0F90DF9168
:10241000CF910895FC01818D928D009711F00C945D
:10242000F3118FEF9FEF08950F931F93CF93DF93D7
:102430008C01FC01818D928D0097B9F00E94F311FF
:10244000EC018F3FFFEF9F0799F0F801818D928D8E
:10245000FC014285538564857585415051096109A8
:1024600071090E946C15CE0105C080E090E002C0A9
:102470008FEF9FEFDF91CF911F910F910895CF9232
:10248000DF92EF92FF920F931F93CF93DF93EC01B4
:102490007B016A011B821A8208EE13E020E030E023
:1024A0000C831D832E833F838CE792E0998388837E
:1024B0008DE190E00E94A7219A8F898F009779F093
:1024C0002DE1F701DC0101900D922A95E1F74CE036
:1024D00050E0B601CE010C960E94F022188EDF91DA
:1024E000CF911F910F91FF90EF90DF90CF900895C3
:1024F000FC011382128248EE53E060E070E04483F6
:102500005583668377838CE792E091838083128E74
:10251000118E148608952CE732E0FC01318320836C
:102520000895DC015996ED91FC915A97309729F066
:10253000628573858485958508956FEF7FEFCB0164
:102540000895DC015996ED91FC915A97309729F046
:102550006389748985899689089560E070E0CB016C
:102560000895CF92DF92EF92FF92CF93DF93EC0129
:10257000898D9A8D892BD9F0CE010E94A1126B0111
:102580007C01CE010E949112A7019601261B370BF8
:10259000480B590BDA01C901811530E89307A105F1
:1025A000B10538F08FEF9FE7A0E0B0E002C080E017
:1025B00090E0DF91CF91FF90EF90DF90CF90089562
:1025C000DC015996ED91FC915A97309721F081E00A
:1025D0009581911101C080E00895CF93DF93EC01C4
:1025E0009C012A5F3F4F41E050E060E070E08B8D3E
:1025F0009C8D0E94281F8823A1F04F89588D698DDA
:102600007A8D452B462B472B71F44E815F8168856F
:1026100079854F8B588F698F7A8F8C8180688C83F6
:1026200002C080E001C081E0DF91CF910895CF9298
:10263000DF92EF92FF921F93CF93DF93EC010E9402
:10264000ED12811102C080E04BC0EB8DFC8DCE807D
:10265000DF80E884F98482E0C81AD108E108F10833
:10266000058404C0CC0CDD1CEE1CFF1C0A94D2F7C0
:102670004685578560897189C40ED51EE61EF71EF2
:10268000148181E0C81AD108E108F108112361F032
:10269000C701B601610F711D811D911D0E94721D40
:1026A000882389F21150F2CFEB8DFC8DC12C82E092
:1026B000D82EE12CF12C058404C0CC0CDD1CEE1CC2
:1026C000FF1C0A94D2F74B895C896D897E894C0D79
:1026D0005D1D6E1D7F1D4B8B5C8B6D8B7E8B81E03A
:1026E000DF91CF911F91FF90EF90DF90CF900895F1
:1026F000CF93DF93EC01462F6E857F85888999897A
:102700000E94371D882341F08A8920E2829FC00100
:10271000112486549A4F02C080E090E0DF91CF915F
:102720000895282FFB018BE030E231938150E9F7C7
:10273000A22FB92F20E037E09D91992319F19E3205
:1027400019F0E6E2F2E008C03A3011F128E03AE090
:10275000F3CF31964917E1F044914111FACF321786
:10276000B8F04FED490F4E3598F441E0420FFB01B0
:10277000E20FF11D2FE9290F2A3108F490529083BE
:10278000242FDACF81E0FB019081903209F480E0C0
:1027900008950F931F93CF93DF93EC018B018D81ED
:1027A000882311F080E040C0FB0187898031B1F4BB
:1027B00082E08D831F8A188E198E1A8E408D518D5E
:1027C00060E070E095E0440F551F661F771F9A95F3
:1027D000D1F74B8B5C8B6D8B7E8B15C0803211F7E4
:1027E00083E08D83FB01428D538D648D758D4F8BFE
:1027F000588F698F7A8F9E012D5E3F4FC8010E94CE
:102800001C1E882379F21C8F0B8F81E08C831E8223
:102810001F82188619861A861B861C861D861E86B0
:102820001F86188A198A1A8ADF91CF911F910F91FA
:1028300008952F923F924F925F926F927F928F9264
:102840009F92AF92BF92CF92DF92EF92FF920F933F
:102850001F93CF93DF93EC016B015A018D8181119E
:1028600003C08FEF9FEFDAC08C8180FFFACF4B89D6
:102870005C896D897E898A859B85AC85BD852501AE
:10288000612C712C8A019B01081B190B2A0B3B0B35
:10289000041515052605370518F45A01A81AB90AB2
:1028A00025011E0126E0220E311C4114510409F4B9
:1028B0007BC04A855B856C857D854A0181E09822D5
:1028C000ED818A019B01F9E03695279517950795CB
:1028D000FA95D1F78B8D9C8DE23051F4FC01628D1D
:1028E000738D848D958D600F711F821F931F3EC065
:1028F000FC0174807A94702281149104C9F47110DF
:1029000017C0452B462B472B49F48F89988DA98DED
:10291000BA8D8E839F83A887B9870AC04E815F8155
:102920006885798591010E94981D882309F499CFC3
:10293000EB8DFC8D6E817F81888599856250710950
:1029400081099109058404C0660F771F881F991FAC
:102950000A94D2F70685178520893189600F711F87
:10296000821F931F670D711D811D911D20E032E0B4
:102970002819390932012415350508F439012C814B
:1029800026FD04C06114F2E07F06A1F50091140257
:1029900010911502209116023091170260177107ED
:1029A0008207930719F426C0C50138C07601830158
:1029B0009401AB01BC018091B8059091B9050E94CA
:1029C000D91B882309F44DCFC60CD71C04C0E81BC3
:1029D000F90BCE0EDF1E8A859B85AC85BD85860DE5
:1029E000971DA11DB11D8A879B87AC87BD8746189F
:1029F00057085BCF40E00E94371D882309F431CF90
:102A0000C40186549A4FD6019C01260D371DFC0146
:102A1000E217F307E1F241914D93FACFDF91CF91A5
:102A20001F910F91FF90EF90DF90CF90BF90AF90EC
:102A30009F908F907F906F905F904F903F902F90DE
:102A40000895FF920F931F93CF93DF931F92CDB7FB
:102A5000DEB78C01FC018581823018F480E090E0C3
:102A600034C0F8014285538564857585A5E0769567
:102A7000679557954795AA95D1F7F42FFF70FF2ECC
:102A800041E050E0BE016F5F7F4FC8010E94191402
:102A9000019719F4298130E002C02FEF3FEF2F3F5B
:102AA0003F4FE1F2F8014285538564857585415EAB
:102AB0005F4F6F4F7F4F4287538764877587F0E280
:102AC000FF9EC001112486549A4F0F90DF91CF9141
:102AD0001F910F91FF9008954F925F926F927F9296
:102AE000AF92BF92CF92DF92EF92FF920F931F931C
:102AF000CF93DF93EC016A017B012D81222309F43E
:102B000057C08B899C89AD89BE8984179507A60714
:102B1000B70708F44DC04EC08A859B85AC85BD853E
:102B2000EB8DFC8DE585F0E03996AC01BD0141509F
:102B30005109610971090E2E04C076956795579564
:102B400047950A94D2F7970186010150110921098E
:102B5000310904C03695279517950795EA95D2F760
:102B60000417150726073707B0F58F89988DA98DAB
:102B7000BA8D8E839F83A887B987280139015E01AA
:102B800086E0A80EB11C411451046104710461F186
:102B90004E815F816885798595018B8D9C8D0E9422
:102BA000981D91E0491A5108610871088111EBCF15
:102BB00080E01FC02230C1F0C114D104E104F1044F
:102BC00009F0AACF1E821F82188619861A861B86D4
:102BD0001C861D860DC0892B8A2B8B2B31F2041B82
:102BE000150B260B370BC9CFCA86DB86EC86FD8614
:102BF00081E0DF91CF911F910F91FF90EF90DF90D7
:102C0000CF90BF90AF907F906F905F904F9008955E
:102C10000F931F93CF93DF93EC018D818823C9F12C
:102C20008C8187FF30C061E0CE010E9478138C0157
:102C3000009779F18D81823048F44B895C896D89E8
:102C40007E89F801448F558F668F778F4F89588D15
:102C5000698D7A8DF801538F428F758B648BE0916B
:102C6000B105F091B205309759F0B8016A5E7F4F17
:102C7000C80148960995F801808D918D938B828BC0
:102C80008C818F778C83DF91CF911F910F910C9462
:102C9000FC1C80E0DF91CF911F910F910895CF939D
:102CA000DF93EC010E940816882319F01D8281E051
:102CB00001C080E0DF91CF9108954F925F926F92B3
:102CC0007F92AF92BF92CF92DF92EF92FF920F93DB
:102CD0001F93CF93DF9300D000D0CDB7DEB75C0158
:102CE0006A017B01FC0185818130F1F4848181FFDF
:102CF0001BC0F50183899489A589B6898417950736
:102D0000A607B70788F0892B8A2B8B2B09F479C08B
:102D1000F5014284538464847584B701A601C5011A
:102D20000E946C15811102C080E06CC0F501838D9A
:102D3000948DC114D104E104F10471F44789508DDC
:102D4000618D728D0E943D20882371F3F501178AF1
:102D5000108E118E128E3AC0F50146815781608522
:102D600071859E012F5F3F4F0E94981D8823E1F2DD
:102D700049815A816B817C81F501838D948DFC01A1
:102D80002789203129F408EF1FEF20E030E004C04C
:102D900008EF1FEF2FEF3FE040175107620773075F
:102DA000A8F40E943D20882309F4BECFF501468196
:102DB0005781608571850FEF1FEF2FEF3FE0838D07
:102DC000948D0E94871E882309F4AECFF501C38A33
:102DD000D48AE58AF68A848180688483C5010E944A
:102DE0000816882309F4A0CFB701A6014C145D048E
:102DF0006E047F0410F4B301A201C5010E946C159A
:102E000001C081E00F900F900F900F90DF91CF9154
:102E10001F910F91FF90EF90DF90CF90BF90AF90F8
:102E20007F906F905F904F900895FF920F931F9344
:102E3000CF93DF93EC01F42E80E2689FF001112420
:102E4000E654FA4F8385817129F0842F827411F042
:102E500080E053C06A8B8091140290911502A0917A
:102E60001602B09117028E879F87A88BB98B448971
:102E7000558960E070E0BA0155274427028D138D13
:102E800020E030E0402B512B622B732B4F8B588F5F
:102E9000698F7A8F8385887151F4048D158D268D05
:102EA000378D0B8B1C8B2D8B3E8B81E00CC08031C2
:102EB00079F69E012D5E3F4F8B8D9C8D0E941C1ECE
:102EC000882331F284E08D838F2D8F708C831E8256
:102ED0001F82188619861A861B861C861D86F6FE9A
:102EE0000BC040E050E0BA01CE01DF91CF911F91BD
:102EF0000F91FF900C945D1681E0DF91CF911F91AF
:102F00000F91FF900895AF92BF92CF92DF92EF9210
:102F1000FF920F931F93CF93DF93CDB7DEB72B971D
:102F20000FB6F894DEBF0FBECDBF7C016B01CA01A6
:102F3000B22EF70125812111B9C0BE016F5F7F4F0D
:102F40000E949113882309F4B1C0F601838D948DFA
:102F5000F701948F838FF6011682178210861186EF
:102F60001286138614861586A12CF6010285138518
:102F70002485358583899489A589B6890817190719
:102F80002A073B07E8F545E03695279517950795FD
:102F90004A95D1F70F70C6010E942115009709F4D8
:102FA00085C0FC012081222311F0253EB9F4A11037
:102FB0000EC0F701028B40911402509115026091EE
:102FC00016027091170246875787608B718BFC0140
:102FD0008081AA24A3948111C8CF12C04BE050E095
:102FE000BC01CE0101960E94D122892B09F0BDCFF0
:102FF0008B2D8073803309F459C04B2D602F52C044
:103000008B2D8271823109F051C0AA2041F061E01C
:10301000C7010E9478138C01009779F447C0F6012C
:103020008581823009F442C0C6010E9417138823AB
:10303000E9F1F701128A0AEB15E080E2F80111923A
:103040008A95E9F78BE0FE013196D80101900D9247
:103050008A95E1F7E091B105F091B205309739F02A
:10306000B801625F7F4FC8014096099509C081E2AF
:1030700098E2F801918B808B80E098E097878687B3
:10308000F80180899189938B828B918F808F8685BF
:103090009785978B868B0E94FC1C882339F04B2DDB
:1030A000F7016289C7010E94151701C080E02B96C5
:1030B0000FB6F894DEBF0FBECDBFDF91CF911F9149
:1030C0000F91FF90EF90DF90CF90BF90AF90089559
:1030D0002F923F924F925F926F927F928F929F9228
:1030E000AF92BF92CF92DF92EF92FF920F931F9316
:1030F000CF93DF9300D000D01F92CDB7DEB78C0105
:103100007B013A01DC0115968C9115978130C9F449
:1031100014968C9181FF15C082FF1BC0F801438972
:1031200054896589768982859385A485B5858417B8
:103130009507A607B70769F0C8010E946C158111B1
:1031400008C081E090E0F8019383828380E090E002
:1031500046C1630180C0D8015B968D919C915C97BC
:10316000FC01F481F150B501A40129E07695679541
:10317000579547952A95D1F7F423FD8321E09222B4
:10318000FF2309F474C080E092E088199909560180
:103190008C159D0508F45C01D8015B96ED91FC91BE
:1031A0005C9716962D903D904D905C901997B2E0EB
:1031B0002B1A310841085108058404C0220C331C25
:1031C000441C551C0A94D2F786859785A089B1893D
:1031D000280E391E4A1E5B1EED812E0E311C411C2D
:1031E000511CA114F2E0BF0609F088C080911402BE
:1031F00090911502A0911602B091170282159305C5
:10320000A405B50559F48FEF9FEFDC0180931402FC
:1032100090931502A0931602B09317029701B20182
:10322000A1018091B8059091B9050E94AE1C882338
:1032300009F487CF9EEFF91ACA18DB08F8018285D6
:103240009385A485B5858A0D9B1DA11DB11D82871F
:103250009387A487B587D8011A968D909D90AD90DD
:10326000BC901D97C114D10409F075CF8AC0811498
:10327000910409F088CF16964D915D916D917C91E6
:103280001997411551056105710559F457968D91AE
:103290009D910D90BC91A02D0097A105B10541F520
:1032A00021C09E012F5F3F4F0E94981D882309F483
:1032B0004ECF89819A81AB81BC81F801238D348DF9
:1032C000F9012789203129F448EF5FEF60E070E0D1
:1032D00004C048EF5FEF6FEF7FE084179507A60704
:1032E000B70730F0C8010E94ED1281114CCF29CFF1
:1032F000F80186839783A087B18745CF8114910415
:1033000029F5D8011A964D915D916D917C911D978B
:1033100053968D919D910D90BC91A02D4817590702
:103320006A077B0798F00E94FC1C882309F409CFE8
:103330002092140230921502409216025092170207
:103340008091B70581608093B70508C041E0C20154
:10335000B1010E94371D882309F4F3CEC4018654BD
:103360009A4FD7019C012A0D3B1DFC01E217F30780
:1033700019F04D914193FACFE81BF90BEE0EFF1EA9
:103380005BCF53968D919D910D90BC91A02DF8012E
:10339000248188159905AA05BB0538F4838A948A87
:1033A000A58AB68A206824830CC08091B1059091CB
:1033B000B205892B31F06114710419F02068F8010D
:1033C0002483D80114968C9183FD02C0C30107C0E9
:1033D000C8010E940816882309F4B3CEF7CF0F90D6
:1033E0000F900F900F900F90DF91CF911F910F9141
:1033F000FF90EF90DF90CF90BF90AF909F908F9015
:103400007F906F905F904F903F902F900895CF9353
:10341000DF931F92CDB7DEB7698341E050E0BE0174
:103420006F5F7F4F0E9468180F90DF91CF910895D2
:103430008EBD0DB407FEFDCF08958FEF0E94181AC0
:103440008EB5089561E0FC0184810C941E0560E056
:10345000FC0184810C941E05CF93DF93EC018E81D7
:103460008823C9F08FEF8EBD4FEF8F8198859C0127
:103470002F5F3F4F38872F838130924028F40DB45F
:1034800007FEFDCF4EBDF1CF0DB407FEFDCFCE013F
:103490000E94221A1E82DF91CF910895673028F092
:1034A00026E1FC01258380E008958DB560FD02C012
:1034B000663011F48E7F01C081608DBD8CB58C7F2C
:1034C0008CBD9CB562FF02C082E001C080E06695C1
:1034D0006170692B682B6CBD81E008950F931F9379
:1034E000CF93DF93EB010E94DE038B010E941D1A34
:1034F0008F3F49F00E94DE03601B710B6C177D0744
:10350000A8F380E001C081E0DF91CF911F910F917E
:103510000895CF92DF92FF920F931F93CF93DF9383
:1035200000D000D0CDB7DEB76C01F62E29833A83E8
:103530004B835C830E942C1AC6010E94271A6CE2FE
:1035400071E0C6010E946E1A8F2D80640E94181AC5
:1035500008E110E05C814B813A812981DA01C901DF
:10356000002E04C0B695A795979587950A94D2F733
:1035700029833A834B835C830E94181A08501109EF
:1035800029813A814B815C81083F8FEF180731F721
:10359000FF2029F0E8E0FE1621F08FEF03C085E957
:1035A00001C087E80E94181A10E00E941D1AF60157
:1035B000828787FF04C01F3F11F01F5FF6CF0F9077
:1035C0000F900F900F90DF91CF911F910F91FF906F
:1035D000DF90CF900895BF92CF92DF92EF92FF924B
:1035E0000F931F93CF93DF93EC01B62E1B861986A2
:1035F0001E821D824C830E94DE038B0161E08C8160
:103600000E94E504CE010E94221A60E082E30E943B
:10361000E50461E083E30E94E50461E084E30E9445
:10362000E50461E085E30E94E50461E085E30E9432
:103630001E0583E58CBD8DB58E7F8DBD2AE0F22EF3
:103640008FEF0E94181AFA94D9F7CE010E94271A18
:1036500020E030E0A90160E0CE010E94891AF82E36
:103660008A8781E0F81649F00E94DE03601B710B27
:10367000613D774068F381E04BC02AEA31E040E0E9
:1036800050E068E0CE010E94891A82FF02C0FB86EA
:103690000DC094E0F92E0E941D1A8A87FA94D9F77A
:1036A0008A3A11F082E034C082E08B878B858230C9
:1036B00031F4C12CD12CE12C80E4F82E03C0C12CB4
:1036C000D12C760120E030E0A90167E3CE010E9411
:1036D000891AA701960169E2CE010E94891A8A8798
:1036E000882349F00E94DE03601B710B613D774027
:1036F00048F388E00DC08B85823031F520E030E062
:10370000A9016AE3CE010E94891A882381F086E02C
:103710008D83CE010E94221A80E0DF91CF911F910C
:103720000F91FF90EF90DF90CF90BF9008950E948F
:103730001D1A807C803C11F483E08B870E941D1A47
:103740000E941D1A0E941D1ACE010E94221A6B2D82
:10375000CE01DF91CF911F910F91FF90EF90DF90FD
:10376000CF90BF900C944E1A0F931F93CF93DF937B
:10377000EC010E94DE038B010E941D1A8A878F3F95
:1037800049F40E94DE03601B710B6D327140A0F39F
:103790008FE003C08E3F39F08DE08D83CE010E9413
:1037A000221A80E001C081E0DF91CF911F910F913B
:1037B0000895CF92DF92EF92FF920F931F93CF93D2
:1037C000DF93EC0169010115110509F475C0C80109
:1037D000820F931F8130924008F070C08E81882341
:1037E00071F088819981AA81BB81481759076A07BE
:1037F0007B0729F48F819885C816D90618F5488368
:1038000059836A837B838B85833039F039E0440F99
:10381000551F661F771F3A95D1F79A01AB0161E1F9
:10382000CE010E94891A882319F083E08D8346C057
:10383000CE010E94B41B882309F440C018861F8261
:1038400081E08E838FEF8EBD2FEF8F8198858C1551
:103850009D0550F40DB407FEFDCF2EBD8F819885D8
:10386000019698878F83F1CFC8010197F7014FEF39
:103870009F012E193F092817390738F40DB407FEA8
:10388000FDCF2EB521934EBDF3CF0DB407FEFDCF76
:103890002EB5F701E80FF91F20838F819885800FDF
:1038A000911F98878F832985222319F081159240D3
:1038B00018F0CE010E942C1A81E004C0CE010E94B3
:1038C000221A80E0DF91CF911F910F91FF90EF902E
:1038D000DF90CF900895EF92FF920F931F9379019D
:1038E00000E012E020E030E00E94D91B1F910F9110
:1038F000FF90EF900895CF93DF93EC016EBD20E031
:1039000030E00DB407FEFDCFFA01E20FF31F808116
:103910008EBD0DB407FEFDCF81818EBD2E5F3F4F62
:10392000211582E0380769F70DB407FEFDCF8FEF50
:103930000E94181A8FEF0E94181A0E941D1A8A8777
:103940008F71853039F081E18D83CE010E94221A7A
:1039500080E001C081E0DF91CF9108950F931F9324
:10396000CF93DF93EC018901411551056105710584
:1039700011F482E132C08B85833039F089E0440F45
:10398000551F661F771F8A95D1F79A01AB0168E131
:10399000CE010E94891A882311F084E01EC0A8017C
:1039A0006EEFCE010E947B1C8823C1F068E572E0B7
:1039B000CE010E946E1A811102C085E10EC020E086
:1039C00030E0A9016DE0CE010E94891A811104C086
:1039D0000E941D1A882339F084E18D83CE010E9454
:1039E000221A80E004C0CE010E94221A81E0DF91F9
:1039F000CF911F910F9108958091B705882399F178
:103A000040911402509115026091160270911702B4
:103A10002AEB35E08091B8059091B9050E94AE1C63
:103A2000882319F14091B3055091B4056091B50513
:103A30007091B605411551056105710591F02AEBAC
:103A400035E08091B8059091B9050E94AE1C88239D
:103A500061F01092B3051092B4051092B505109262
:103A6000B6051092B70581E0089580E00895CF92E1
:103A7000DF92EF92FF92CF936B017C01C42F809174
:103A8000140290911502A0911602B09117028C15A4
:103A90009D05AE05BF05D1F00E94FC1C811102C03E
:103AA00080E01AC02AEB35E0B701A6018091B80585
:103AB0009091B9050E946B1C882391F3C092140267
:103AC000D0921502E0921602F09217028091B7058B
:103AD0008C2B8093B70581E0CF91FF90EF90DF9022
:103AE000CF900895CF92DF92EF92FF926B017C010D
:103AF0000E94FC1C8823B1F0EAEBF5E0119287E00C
:103B0000EA3BF807D9F7C0921402D0921502E0926E
:103B10001602F09217028091B70581608093B70575
:103B200081E001C080E0FF90EF90DF90CF9008959A
:103B30008F929F92AF92BF92CF92DF92EF92FF92BD
:103B40000F931F93CF93DF938C016A017B01E901EF
:103B5000FC0181859285A385B4850196A11DB11DC7
:103B600084179507A607B70710F480E058C0F8013E
:103B700043895489658976898789803129F4BB27EF
:103B8000AF2D9E2D8D2D09C0D701C60127E0B6951A
:103B9000A795979587952A95D1F74C015D01840EDD
:103BA000951EA61EB71EC501B40180901402909008
:103BB0001502A0901602B0901702681579058A05C3
:103BC0009B0589F4F8018789803199F4DD24EE247E
:103BD000FF24F601EE0FFF1FE654FA4F808191811A
:103BE000A0E0B0E017C040E00E94371D8111EACF8D
:103BF000BCCFE894C7F8DD24EE24FF24F601EE0FD5
:103C0000FF1FEE0FFF1FE654FA4F80819181A281C2
:103C1000B381BF7088839983AA83BB8381E0DF91DE
:103C2000CF911F910F91FF90EF90DF90CF90BF90B9
:103C3000AF909F908F9008954F925F926F927F9276
:103C4000AF92BF92CF92DF92EF92FF920F931F93AA
:103C5000CF93DF9300D000D0CDB7DEB78C0149837E
:103C60005A836B837C835901C12CD12C7601412C62
:103C700042E0542E612C712C49815A816B817C81E8
:103C80009E012F5F3F4FC8010E94981D882359F164
:103C9000D301C201F801058404C0880F991FAA1F2F
:103CA000BB1F0A94D2F7C80ED91EEA1EFB1E49811B
:103CB0005A816B817C818789803129F488EF9FEF5D
:103CC000A0E0B0E004C088EF9FEFAFEFBFE048177F
:103CD00059076A077B0780F2F501C082D182E28230
:103CE000F38281E001C080E00F900F900F900F9061
:103CF000DF91CF911F910F91FF90EF90DF90CF90C8
:103D0000BF90AF907F906F905F904F9008954F92CB
:103D10005F926F927F928F929F92AF92BF92CF925B
:103D2000DF92EF92FF920F931F93CF93DF93EC01FB
:103D30006A017B0128013901423051056105710595
:103D400008F474C049855A856B857C854F5F5F4F49
:103D50006F4F7F4F4C155D056E057F0508F466C0FB
:103D60008B889C88AD88BE888F89803129F477271D
:103D70006F2D5E2D4D2D09C0B701A601E7E07695A8
:103D8000679557954795EA95D1F7840E951EA61E1F
:103D9000B71E409114025091150260911602709165
:103DA000170284169506A606B70671F48F8980312E
:103DB00099F4DD24EE24FF24F601EE0FFF1FE654F4
:103DC000FA4F5182408218C040E0C501B4010E9400
:103DD000371D8111EBCF2AC0E894C7F8DD24EE240B
:103DE000FF24F601EE0FFF1FEE0FFF1FE654FA4F00
:103DF00040825182628273828091B7058160809394
:103E0000B7058A89823080F08D819E81AF81B88527
:103E1000880D991DAA1DBB1D8093B3059093B40511
:103E2000A093B505B093B60581E001C080E0DF91B5
:103E3000CF911F910F91FF90EF90DF90CF90BF90A7
:103E4000AF909F908F907F906F905F904F9008956C
:103E50002F923F924F925F926F927F929F92AF927A
:103E6000BF92CF92DF92EF92FF920F931F93CF9367
:103E7000DF93CDB7DEB760970FB6F894DEBF0FBE05
:103E8000CDBF5C014D875E876F87788B1901D901A3
:103E90004D905D906D907C904114510461047104CB
:103EA00031F0BFEF4B1A5B0A6B0A7B0A10C0FC01B2
:103EB0004080518062807380992493940D851E8583
:103EC0002F853889013011052105310509F0912C24
:103ED000D50119962D913D914D915C911C972F5FC5
:103EE0003F4F4F4F5F4F29873A874B875C8773015E
:103EF00062011D821E821F821886F50181859285CE
:103F0000A385B4850D811E812F8138850817190777
:103F10002A073B0708F056C029853A854B855C8502
:103F20002C153D054E055F0550F4A2E0CA2ED12C9C
:103F3000E12CF12CB2E04B2E512C612C712C9E0106
:103F40002F5F3F4FB701A601C5010E94981D88232E
:103F5000C9F149815A816B817C81D701C6010196E3
:103F6000A11DB11D452B462B472B19F02C013D01FE
:103F70000FC0AC01BD0144195509660977090D85CB
:103F80001E852F853889401751076207730779F01E
:103F90002D813E814F8158852F5F3F4F4F4F5F4F9F
:103FA0002D833E834F8358876C017D01A6CF0FEF91
:103FB0001FEF2FEF3FE0B701A601C5010E94871E4A
:103FC000811118C080E041C0D701C6010197A10945
:103FD000B1098D839E83AF83B88797018601AC01B9
:103FE000BD01C5010E94871E882361F3CD80DE805C
:103FF000EF80F8844C145D046E047F0428F3D10133
:104000004D915D916D917C91411551056105710551
:1040100099F4F10140825182628273829920A1F069
:10402000FFEF4F1A5F0A6F0A7F0AD5014D925D922A
:104030006D927C92139708C093018201C5010E9482
:10404000871E8111E6CFBECF81E060960FB6F8944F
:10405000DEBF0FBECDBFDF91CF911F910F91FF90BB
:10406000EF90DF90CF90BF90AF909F907F906F9038
:104070005F904F903F902F900895AF92BF92CF9254
:10408000DF92EF92FF920F931F93CF93DF9300D0B5
:1040900000D0CDB7DEB75C016A017B0182E090E021
:1040A000A0E0B0E0F50180839183A283B3839E01F9
:1040B0002F5F3F4FB701A601C5010E94981D8823BD
:1040C00011F100E010E09801B701A601C5010E94BE
:1040D000871E8823C1F0C980DA80EB80FC80F5015F
:1040E0008789803129F488EF9FEFA0E0B0E004C019
:1040F00088EF9FEFAFEFBFE0C816D906EA06FB06D0
:10410000B0F281E001C080E00F900F900F900F900F
:10411000DF91CF911F910F91FF90EF90DF90CF90A3
:10412000BF90AF9008958F929F92AF92BF92CF921F
:10413000DF92EF92FF920F931F93CF93DF93EC01E7
:10414000142F7093B9056093B805442341F14530AD
:1041500010F080E0EFC040E060E070E0CB010E9432
:10416000371D8823B1F320E1129FF0011124E85993
:10417000F84F80818F7769F784859585A685B78507
:1041800084369105A105B10520F3C084D184E28471
:10419000F384C114D104E104F10421F4DACFC12C79
:1041A000D12C760140E0C701B6010E94371D88235B
:1041B00081F28091C5059091C6058115924049F61E
:1041C0003091CA05332329F28091C8059091C90521
:1041D000892B09F4BECF2091C705222309F4B9CF5A
:1041E0003A8B2C831D8630E041E050E06D85062F30
:1041F000CA01062E02C0880F991F0A94E2F72817F9
:10420000390731F081E0860F8D87683078F3A1CFD0
:104210002091D0053091D1052115310519F040E0EC
:1042200050E008C02091DE053091DF054091E005A7
:104230005091E1052D833E834F8358878091C805B7
:104240009091C90546015701880E991EA11CB11C09
:104250008B8A9C8AAD8ABE8AE091CB05F091CC0511
:10426000F98FE88FA091CA05B0E00E949D25680DE6
:10427000791D8A1D9B1D6A8F7B8F8C8F9D8F15E00A
:10428000EE0FFF1F1A95E1F7E150FE4FEF2FFF27CA
:10429000E695DC01CB018E0F9F1FA11DB11D8E87FE
:1042A0009F87A88BB98B8090CD059090CE05811407
:1042B000910419F0A12CB12C08C08090DA059090DF
:1042C000DB05A090DC05B090DD05A7019601281B59
:1042D000390B4A0B5B0BDA01C901880D991DAA1D28
:1042E000BB1D04C0B695A795979587950A95D2F7FB
:1042F00089879A87AB87BC87853F3FE09307A105F5
:10430000B10510F48CE014C0853F9F4FA105B105A5
:1043100010F480E10DC08091E6059091E705A09131
:10432000E805B091E9058A8F9B8FAC8FBD8F80E245
:104330008F8B81E0DF91CF911F910F91FF90EF90D4
:10434000DF90CF90BF90AF909F908F900895CF93C4
:10435000DF938230910510F482E090E0E091BC0799
:10436000F091BD0720E030E0A0E0B0E0309739F1F7
:104370004081518148175907B8F04817590771F41F
:1043800082819381109729F013969C938E931297B4
:104390002CC09093BD078093BC0727C02115310521
:1043A00031F04217530718F0A901DB0101C0EF01FA
:1043B0009A01BD01DF010280F381E02DD7CF2115E5
:1043C0003105F9F0281B390B2430310580F48A813E
:1043D0009B816115710521F0FB019383828304C0E9
:1043E0009093BD078093BC07FE01329644C0FE0146
:1043F000E20FF31F8193919322503109398328836F
:104400003AC02091BA073091BB07232B41F4209189
:104410001A0230911B023093BB072093BA072091F8
:104420001802309119022115310541F42DB73EB71C
:1044300040911C0250911D02241B350BE091BA07DC
:10444000F091BB07E217F307A0F42E1B3F0B2817D0
:10445000390778F0AC014E5F5F4F2417350748F0FD
:104460004E0F5F1F5093BB074093BA078193919300
:1044700002C0E0E0F0E0CF01DF91CF910895CF934B
:10448000DF93009709F487C0FC01329713821282F0
:10449000C091BC07D091BD07209781F42081318164
:1044A000280F391F8091BA079091BB078217930795
:1044B00079F5F093BB07E093BA076DC0DE0120E009
:1044C00030E0AE17BF0750F412964D915C911397F0
:1044D0009D014115510509F1DA01F3CFB383A283A0
:1044E00040815181840F951F8A179B0771F48D912C
:1044F0009C911197840F951F029691838083129649
:104500008D919C911397938382832115310529F412
:10451000F093BD07E093BC073EC0D9011396FC930E
:10452000EE9312974D915D91A40FB51FEA17FB070B
:1045300079F480819181840F951F0296D90111969B
:104540009C938E938281938113969C938E93129762
:10455000E0E0F0E08A819B81009719F0FE01EC0118
:10456000F9CFCE01029628813981820F931F2091C5
:10457000BA073091BB072817390769F4309729F437
:104580001092BD071092BC0702C013821282D09312
:10459000BB07C093BA07DF91CF910895F8940C94AC
:1045A000BB25FB01DC0104C08D910190801921F431
:1045B00041505040C8F7881B990B0895FC01819128
:1045C000861721F08823D9F7992708953197CF01CD
:1045D0000895FB01DC0101900D920020E1F70895A0
:1045E000FB01DC014150504048F001900D92002049
:1045F000C9F701C01D9241505040E0F7089550584E
:10460000BB27AA270ED075C166D130F06BD120F040
:1046100031F49F3F11F41EF45BC10EF4E095E7FB0B
:1046200051C1E92F77D180F3BA1762077307840766
:10463000950718F071F49EF58FC10EF4E0950B2EDE
:10464000BA2FA02D0B01B90190010C01CA01A001E4
:104650001124FF27591B99F0593F50F4503E68F13F
:104660001A16F040A22F232F342F4427585FF3CF80
:10467000469537952795A795F0405395C9F77EF451
:104680001F16BA0B620B730B840BBAF09150A1F09A
:10469000FF0FBB1F661F771F881FC2F70EC0BA0F20
:1046A000621F731F841F48F4879577956795B795A8
:1046B000F7959E3F08F0B3CF9395880F08F09927A0
:1046C000EE0F979587950895D9D008F481E0089565
:1046D0000CD00FC107D140F0FED030F021F45F3F85
:1046E00019F0F0C0511139C1F3C014D198F39923D6
:1046F000C9F35523B1F3951B550BBB27AA276217A6
:104700007307840738F09F5F5F4F220F331F441FEA
:10471000AA1FA9F333D00E2E3AF0E0E830D0915022
:104720005040E695001CCAF729D0FE2F27D0660F0F
:10473000771F881FBB1F261737074807AB07B0E84E
:1047400009F0BB0B802DBF01FF2793585F4F2AF064
:104750009E3F510568F0B6C000C15F3FECF3983E44
:10476000DCF3869577956795B795F7959F5FC9F7C1
:10477000880F911D9695879597F90895E1E0660F4A
:10478000771F881FBB1F621773078407BA0720F0C3
:10479000621B730B840BBA0BEE1F88F7E09508952C
:1047A00004D06894B111D9C00895BCD088F09F5747
:1047B00090F0B92F9927B751A0F0D1F0660F771F6D
:1047C000881F991F1AF0BA95C9F712C0B13081F04D
:1047D000C3D0B1E00895C0C0672F782F8827B85F95
:1047E00039F0B93FCCF3869577956795B395D9F7AE
:1047F0003EF490958095709561957F4F8F4F9F4FB8
:104800000895E89409C097FB3EF4909580957095C3
:1048100061957F4F8F4F9F4F9923A9F0F92F96E90C
:10482000BB279395F695879577956795B795F11181
:10483000F8CFFAF4BB0F11F460FF1BC06F5F7F4F1E
:104840008F4F9F4F16C0882311F096E911C0772330
:1048500021F09EE8872F762F05C0662371F096E839
:10486000862F70E060E02AF09A95660F771F881F08
:10487000DAF7880F9695879597F90895990F0008AC
:10488000550FAA0BE0E8FEEF16161706E807F90722
:10489000C0F012161306E407F50798F0621B730BBD
:1048A000840B950B39F40A2661F0232B242B252B3E
:1048B00021F408950A2609F4A140A6958FEF811DE1
:1048C000811D089597F99F6780E870E060E0089582
:1048D0009FEF80EC089500240A9416161706180618
:1048E0000906089500240A941216130614060506F4
:1048F0000895092E0394000C11F4882352F0BB0F85
:1049000040F4BF2B11F460FF04C06F5F7F4F8F4FE7
:104910009F4F089557FD9058440F551F59F05F3F22
:1049200071F04795880F97FB991F61F09F3F79F0D1
:1049300087950895121613061406551FF2CF469553
:10494000F1DF08C0161617061806991FF1CF8695D5
:104950007105610508940895E894BB2766277727B9
:10496000CB0197F908958ADF08F48FEF08950BD0F3
:10497000C0CFB1DF28F0B6DF18F0952309F0A2CF41
:10498000A7CF1124EACFC6DFA0F3959FD1F3950FEF
:1049900050E0551F629FF001729FBB27F00DB11DC3
:1049A000639FAA27F00DB11DAA1F649F6627B00D53
:1049B000A11D661F829F2227B00DA11D621F739F3C
:1049C000B00DA11D621F839FA00D611D221F749F4A
:1049D0003327A00D611D231F849F600D211D822F91
:1049E000762F6A2F11249F5750408AF0E1F08823D8
:1049F0004AF0EE0FFF1FBB1F661F771F881F9150E5
:104A00005040A9F79E3F510570F05CCFA6CF5F3FA5
:104A1000ECF3983EDCF3869577956795B795F79517
:104A2000E7959F5FC1F7FE2B880F911D969587959F
:104A300097F9089511F40EF44BCF42C073DFD0F311
:104A40009923D9F3CEF39F57550B87FF47D0002406
:104A5000A0E640EA900180585695979528F4805C2E
:104A6000660F771F881F20F026173707480730F496
:104A7000621B730B840B202931294A2BA6951794AE
:104A80000794202531254A2758F7660F771F881F7E
:104A900020F026173707480730F4620B730B840B9E
:104AA000200D311D411DA09581F7B901842F91582A
:104AB000880F969587950895E1DE880B990B0895E8
:104AC0009F3F31F0915020F4879577956795B79582
:104AD000880F911D9695879597F9089591505040AC
:104AE000660F771F881FD2F70895A1E21A2EAA1B1E
:104AF000BB1BFD010DC0AA1FBB1FEE1FFF1FA2178E
:104B0000B307E407F50720F0A21BB30BE40BF50B8A
:104B1000661F771F881F991F1A9469F76095709513
:104B2000809590959B01AC01BD01CF010895EE0FDA
:104B3000FF1F0590F491E02D09940E94AC25A59FDC
:104B4000900DB49F900DA49F800D911D1124089588
:104B50000790F691E02D0994A29FB001B39FC00188
:104B6000A39F700D811D1124911DB29F700D811D99
:104B70001124911D089512E0CEE3D2E000E006C0BA
:104B800022970109FE010BBF0E94A825C034D1075E
:0A4B900080E00807A9F7F894FFCFB2
:104B9A006D6F6E6B3030003500F4012B002D002F45
:104BAA0000310001FFFFFFFF0000BE078000436FD6
:104BBA00756C64206E6F7420696E697469616C69C2
:104BCA007A6520534420636172642E006D6F6E6BA8
:104BDA003030004F70656E65642066696C656E6181
:104BEA006D653A20002C20002C006E616E00696E03
:104BFA0066006F766600000000002308A205CF0752
:104C0A00F807DF0718082F0000000000BA11D011BA
:104C1A00B1120A121412EB1100000000071AA205C1
:00000001FF
