:100000000C9464000C948C000C948C000C948C0068
:100010000C948C000C948C000C948C000C948C0030
:100020000C948C000C948C000C948C000C948C0020
:100030000C948C000C948C000C948C000C948C0010
:100040000C9469010C948C000C941D050C946005B3
:100050000C948C000C948C000C948C000C948C00F0
:100060000C948C000C948C0000000007000201002E
:100070000003040600000000000000000102040864
:100080001020408001020408102001020408102002
:10009000040404040404040402020202020203032E
:1000A00003030303000000002300260029000000D2
:1000B0000000250028002B0000000000240027007D
:1000C0002A005E011C06150911241FBECFEFD8E0DF
:1000D000DEBFCDBF12E0A0E0B1E0ECE6F9E102C086
:1000E00005900D92A231B107D9F722E0A2E1B2E06A
:1000F00001C01D92AF3CB207E1F710E0C8ECD0E0C0
:1001000004C02297FE010E94B00CC23CD107C9F77F
:100110000E947E040C94130A0C94000040E855E2FF
:1001200060E070E08FE192E00E949B0560E071E08A
:100130008FE192E00E94920261E070E082E192E041
:100140000C94DD07CF92DF92EF92FF920F931F93F3
:1001500082E192E00E9415087C0165E271E08FE186
:1001600092E00E9475024AE050E0B7018FE192E010
:100170000E946B03B70180E090E00E94180B20E022
:1001800030E040E058E30E94CE0B6B017C0161E35C
:1001900071E08FE192E00E94750228E030E0B70143
:1001A000A6018FE192E00E946C046AE371E08FE1A6
:1001B00092E00E94750220E030E047ED53E4C70171
:1001C000B6010E94CE0BAB01BC0128E030E08FE10C
:1001D00092E00E946C0468E471E08FE192E00E947A
:1001E000750200E010E027ED33E440E050E068ECF9
:1001F00072E482E192E00E943D08AB01BC0122E082
:1002000030E08FE192E00E946C0482E192E00E9473
:100210004307F82E882309F441C067E571E08FE1B8
:1002200092E00E94750240E150E06F2D8FE192E074
:100230000E945403F7FE06C060E671E08FE192E091
:100240000E949202F6FE06C063E771E08FE192E041
:100250000E949202F5FE06C065E871E08FE192E02F
:100260000E949202F4FE06C06AE971E08FE192E01A
:100270000E949202F3FE06C06DEB71E08FE192E006
:100280000E949202F2FE06C060EE71E08FE192E001
:100290000E94920282E192E00E948C078FE192E03C
:1002A0000E947E0268EE73E080E090E01F910F9163
:1002B000FF90EF90DF90CF900C94D6010F930DE05C
:1002C0002CE04BE06AE082E192E00E949D060F91F3
:1002D00008951F920F920FB60F9211242F933F9300
:1002E0008F939F93AF93BF938091170290911802C1
:1002F000A0911902B0911A023091160223E0230F47
:100300002D3720F40196A11DB11D05C026E8230F4D
:100310000296A11DB11D209316028093170290939F
:100320001802A0931902B0931A0280911B029091B7
:100330001C02A0911D02B0911E020196A11DB11DCB
:1003400080931B0290931C02A0931D02B0931E0287
:10035000BF91AF919F918F913F912F910F900FBEC1
:100360000F901F9018953FB7F89480911B029091C1
:100370001C02A0911D02B0911E0226B5A89B05C0CB
:100380002F3F19F00196A11DB11D3FBF6627782FA1
:10039000892F9A2F620F711D811D911D42E0660FFA
:1003A000771F881F991F4A95D1F70895CF92DF9242
:1003B000EF92FF92CF93DF936B017C010E94B30118
:1003C000EB01C114D104E104F10479F00E94B301FE
:1003D0006C1B7D0B683E7340A0F381E0C81AD10806
:1003E000E108F108C851DC4FECCFDF91CF91FF90CD
:1003F000EF90DF90CF900895789484B5826084BDAB
:1004000084B5816084BD85B5826085BD85B5816018
:1004100085BDEEE6F0E0808181608083E1E8F0E078
:100420001082808182608083808181608083E0E8A7
:10043000F0E0808181608083E1EBF0E08081846086
:100440008083E0EBF0E0808181608083EAE7F0E088
:1004500080818460808380818260808380818160EC
:1004600080838081806880831092C1000895CF923C
:10047000DF92EF92FF920F931F93CF93DF936C0164
:100480007A01EB01E60EF71E00E010E0CE15DF0565
:1004900061F06991D601ED91FC910190F081E02D20
:1004A000C6010995080F191FF1CFC801DF91CF913F
:1004B0001F910F91FF90EF90DF90CF9008956115FD
:1004C000710581F0DB010D900020E9F7AD0141508D
:1004D0005109461B570BDC01ED91FC910280F38121
:1004E000E02D099480E090E008950C945F02DC0117
:1004F000ED91FC910190F081E02D09940F931F93F1
:10050000CF93DF93EC016DE00E9477028C016AE0EB
:10051000CE010E947702800F911FDF91CF911F9132
:100520000F9108950F931F93CF93DF93EC010E94D7
:100530005F028C01CE010E947E02800F911FDF912D
:10054000CF911F910F9108958F929F92AF92BF927A
:10055000CF92DF92EF92FF920F931F93CF93DF938F
:10056000CDB7DEB7A1970FB6F894DEBF0FBECDBFF3
:100570007C01C42EE52FCB01D22E19A221E02D152E
:1005800010F02AE0D22E8E010F5D1F4F8D2C912C82
:10059000A12CB12C6C2D7E2FA50194010E948C0CF6
:1005A0008C2DD29E80191124015011098A3014F427
:1005B000805D01C0895CF80180832115310541050A
:1005C000510521F0C22EE32FCA01E4CFB801C701C3
:1005D0000E945F02A1960FB6F894DEBF0FBECDBF9A
:1005E000DF91CF911F910F91FF90EF90DF90CF900F
:1005F000BF90AF909F908F900895CF92DF92EF922F
:10060000FF920F931F93CF93DF93EC016A017B015D
:100610002115310579F4E881F9810190F081E02D0F
:10062000642FDF91CF911F910F91FF90EF90DF909A
:10063000CF9009942A303105E9F477FF1AC06DE2B2
:100640000E9477028C0144275527BA014C195D0995
:100650006E097F092AE0CE010E94A402800F911F3B
:10066000DF91CF911F910F91FF90EF90DF90CF908E
:1006700008952AE0B701A601CE01DF91CF911F9125
:100680000F91FF90EF90DF90CF900C94A402211572
:10069000310541F4DC01ED91FC910190F081E02DF8
:1006A000642F09940C94A4020F931F93CF93DF93AC
:1006B000EC019A01462F50E060E070E00E94470391
:1006C0008C01CE010E947E02800F911FDF91CF919D
:1006D0001F910F9108950F931F93CF93DF93EC0118
:1006E0009A01AB0160E070E00E9447038C01CE01EB
:1006F0000E947E02800F911FDF91CF911F910F9179
:1007000008954F925F926F927F928F929F92AF92D5
:10071000BF92CF92DF92EF92FF920F931F93CF93EE
:10072000DF93EC016A017B01B22E9A01AB01C70194
:10073000B6010E94730C882319F063EF71E027C0A3
:1007400026013701E89477F82FEF3FEF4FE75FE797
:10075000C301B2010E94730C81110DC02FEF3FEF56
:100760004FE75FE7C301B2010E947B0A18161CF431
:1007700067EF71E00CC02FEF3FEF4FE75FE4C70179
:10078000B6010E94CA0B1816ACF46BEF71E0CE01F3
:10079000DF91CF911F910F91FF90EF90DF90CF905D
:1007A000BF90AF909F908F907F906F905F904F9091
:1007B0000C945F022FEF3FEF4FE75FECC701B601EC
:1007C0000E947B0A87FDE1CF20E030E0A901C7014C
:1007D000B6010E947B0A87FF0AC06DE2CE010E942B
:1007E00077028C01F7FAF094F7F8F09402C000E079
:1007F00010E0A12C60E070E080E09FE3AB1441F0DA
:1008000020E030E040E251E40E947F0AA394F6CF5A
:100810009B01AC01C701B6010E94170A6B017C0164
:100820000E94EC0A2B013C010E94180B9B01AC01B9
:10083000C701B6010E94160A6B017C012AE0B301D0
:10084000A201CE010E94A402080F191FBB2039F09B
:100850006FEF71E0CE010E945F02080F191F7B2C21
:10086000772041F120E030E040E251E4C701B601D9
:100870000E94CE0B6B017C010E94E70A4B01AA2467
:1008800097FCA094BA2C2AE030E0B501A401CE0177
:100890000E94FD02080F191FC501B4010E941A0B26
:1008A0009B01AC01C701B6010E94160A6B017C01D5
:1008B0007A94D6CFC801DF91CF911F910F91FF900D
:1008C000EF90DF90CF90BF90AF909F908F907F90F0
:1008D0006F905F904F9008950F931F93CF93DF9386
:1008E000EC010E9481038C01CE010E947E02800FE8
:1008F000911FDF91CF911F910F9108950E94FC01EC
:100900000E948E00C7E5D5E00E94A2002097E1F387
:100910000E945705F9CFFC0124853585F901E05C7B
:10092000FF4F80819181329620813181821B930B10
:100930008F7399270895FC0184859585FC01E05CFF
:10094000FF4F4081518132962081318142175307F8
:1009500041F00190F081E02DE80FF91F808190E0D7
:1009600008958FEF9FEF0895FC0184859585FC0124
:10097000E05CFF4F408151813296208131814217E6
:10098000530779F0A081B181A80FB91F8C91208104
:1009900031812F5F3F4F2F7333273183208390E0C6
:1009A00008958FEF9FEF0895FC0181A1882329F01E
:1009B000A489B5898C9186FFFBCF11A20895CF93AE
:1009C000DF93FC0126853785D901A05CBF4F8D914F
:1009D0009C91119701968F739927E901CE5BDF4FA8
:1009E0004881598184179507D9F30D90BC91A02DAA
:1009F000A20FB31F6C93A685B785A05CBF4F11965D
:100A00009C938E93A689B7892C9181E090E0078C06
:100A100002C0880F991F0A94E2F7282B2C9381E0DB
:100A200081A30488F589E02D80818064808381E042
:100A300090E0DF91CF91089508951F920F920FB625
:100A40000F9211242F933F934F938F939F93EF9384
:100A5000FF938091C00082FD1CC04091C600809130
:100A6000C5029091C60201968F7399272091C70203
:100A70003091C8028217930771F0E091C502F0919E
:100A8000C602EB57FD4F40839093C6028093C50288
:100A900002C08091C600FF91EF919F918F914F917D
:100AA0003F912F910F900FBE0F901F9018958FE1DF
:100AB00092E00E948B04892B11F00C941C05089580
:100AC0001F920F920FB60F9211242F933F938F9383
:100AD0009F93EF93FF932091810230918202809146
:100AE0008302909184022817390731F48091C10064
:100AF0008F7D8093C10014C0E0918302F091840245
:100B0000EF5BFD4F208180918302909184020196DA
:100B10008F73992790938402809383022093C60059
:100B2000FF91EF919F918F913F912F910F900FBE69
:100B30000F901F901895CF92DF92EF92FF92CF9374
:100B4000DF93EC016A017B01411581EE58076105D5
:100B50007105F9F0EC89FD8981E090E008A002C000
:100B6000880F991F0A94E2F7808360E079E08DE3B3
:100B700090E0A70196010E948C0C21503109410997
:100B800051095695479537952795211580E13807E6
:100B900098F0EC89FD89108260E874E88EE190E0BD
:100BA000A70196010E948C0C21503109410951097D
:100BB0005695479537952795E889F9893083EA89CD
:100BC000FB89208319A2EE89FF89408181E090E0B2
:100BD0009C010C8C02C0220F331F0A94E2F7422BB7
:100BE0004083EE89FF8940819C010D8C02C0220F59
:100BF000331F0A94E2F7422B4083EE89FF8940813C
:100C00009C010E8C02C0220F331F0A94E2F7422B84
:100C10004083EE89FF8920810F8C02C0880F991FC5
:100C20000A94E2F7809582238083DF91CF91FF9031
:100C3000EF90DF90CF90089510922202109221023F
:100C400088EE93E0A0E0B0E080932302909324022A
:100C5000A0932502B093260285E092E090932002B3
:100C600080931F0285E892E090932C0280932B02E0
:100C700081E492E090932E0280932D0285EC90E027
:100C80009093300280932F0284EC90E09093320294
:100C90008093310280EC90E0909334028093330291
:100CA00081EC90E0909336028093350282EC90E0E4
:100CB000909338028093370286EC90E090933A024A
:100CC0008093390284E080933B0283E080933C026E
:100CD00087E080933D0285E080933E0281E080932F
:100CE0003F0208952091CD02222399F03FB7F89456
:100CF0002091CD02213059F42DB32093CB024DB376
:100D00002091CC02209524232DBB3FBF02C03093FD
:100D1000CB028CBD9DBD08958091CD02882361F0EA
:100D20009FB7F8942091CD028091CB02213019F425
:100D30008DBB9FBF08958FBF08950F93FC01008363
:100D40006383218342830F910895AF92BF92DF9214
:100D5000EF92FF920F931F93CF93DF931F92CDB724
:100D6000DEB75C01D62EFC0180818F3F39F46EBD69
:100D700000000DB407FEFDCF8EB52AC007E010E0DD
:100D800040E0EE24E394F12C440F61E0F501808112
:100D900049830E94B4099701002E01C0220F0A94D2
:100DA000EAF76D2D6223F50182810E94B40960E0AB
:100DB000F50180810E94B409F50181810E94EA0950
:100DC0004981892B09F0416001501109E8F6842F0F
:100DD0000F90DF91CF911F910F91FF90EF90DF90D7
:100DE000BF90AF900895DF92EF92FF920F931F9301
:100DF000CF93DF93EC01162FF42ED52EE22E1F7722
:100E000088818F3F39F48091C9029091CA020E9473
:100E1000720603C060E00E94B40960E08B810E940A
:100E2000B409612FCE010E94A5060F2D1D2DFE0CC9
:100E3000F01641F06FEFCE010E94A506F8018193F4
:100E40008F01F6CF88818F3F11F40E948C0661E0FC
:100E50008B81DF91CF911F910F91FF90EF90DF90E9
:100E60000C94B409CF93DF931F92CDB7DEB71982EC
:100E700021E0AE014F5F5F4F0E94F30689810F9022
:100E8000DF91CF91089567E00C943207CF93DF9301
:100E900000D0CDB7DEB719821A8222E0AE014F5FD3
:100EA0005F4F0E94F306898190E0982F88272A815E
:100EB000822B0F900F90DF91CF9108950F931F9386
:100EC000CF93DF93EC01062F142F88818F3F39F4E5
:100ED0008091C9029091CA020E94720603C060E02C
:100EE0000E94B40960E08B810E94B409602F6068A1
:100EF000CE010E94A506612FCE010E94A506888121
:100F00008F3F11F40E948C0661E08B81DF91CF91BD
:100F10001F910F910C94B409CF93DF93EC0160E023
:100F20000E943207482F437D426060E0CE01DF918E
:100F3000CF910C945E071F93CF93DF93EC01162F94
:100F400060E00E943207482F112311F0406801C071
:100F50004F7760E0CE01DF91CF911F910C945E0737
:100F60001F93CF93DF93EC01162F60E00E943207AE
:100F7000482F112311F0406401C04F7B60E0CE0187
:100F8000DF91CF911F910C945E070F931F93CF9326
:100F9000DF93EC018B0160E00E943207482F0130A3
:100FA000110511F4406101C04F7E60E0CE01DF9178
:100FB000CF911F910F910C945E070F931F93CF93C6
:100FC000DF93EC018B0161E08B810E947B0961E082
:100FD0008B810E94B40988818F3F81F061E00E947B
:100FE0007B0960E088810E94B40961E08A810E94E7
:100FF0007B0960E089810E947B0902C00E941C0974
:10100000B801CE010E94C50760E0CE010E949B0797
:1010100060E0CE010E94B007CE010E948C0781E003
:10102000DF91CF911F910F910895CF93DF93EC0142
:101030000E948C0761E0CE010E949B076AE070E08D
:1010400080E090E00E94D60160E0CE010E9432076D
:10105000482F406260E0CE010E945E0761E470E0CC
:1010600080E090E00E94D60161E0CE010E94460738
:1010700096958795DF91CF9108954F925F926F92E9
:101080007F928F929F92AF92BF92CF92DF92EF9218
:10109000FF920F931F93CF93DF934A015B01680187
:1010A00079010E941508BC0180E090E00E94180BB5
:1010B00020E030E040E058E30E94CE0BA70196010B
:1010C0000E94CE0B2B013C01A50194016FE775E056
:1010D0008BE196EB0E947F0AA30192010E94CE0B46
:1010E00026E133E843E957E30E94170A0E94350CD2
:1010F00022E331E140E85BE30E94160A2FE735E086
:101100004BE955EB0E947F0A8B01D82FC92F20E0B5
:1011100030E0A9010E94CA0B87FF73C0A5019401AA
:10112000C301B2010E947F0A20E030E048EC52E4A3
:101130000E94CE0B6B017C012BE532E44EE050E4C3
:101140000E94CE0B2FE135E042E753EC0E94170AD4
:101150002B013C01A7019601C701B6010E94CE0BED
:101160004B015C0124E338E749E25BE30E94CE0BCC
:101170009B01AC01C301B2010E94170A2B013C0183
:10118000A7019601C501B4010E94CE0B4B015C0181
:1011900026E03FEE41EA56E30E94CE0B9B01AC01F4
:1011A000C301B2010E94160A2B013C01A70196015E
:1011B000C501B4010E94CE0B4B015C0123E137E174
:1011C00042EF52E30E94CE0B9B01AC01C301B2017E
:1011D0000E94160A2B013C01A7019601C501B4012A
:1011E0000E94CE0B2BE339E947E25FE20E94CE0B6F
:1011F0009B01AC01C301B2010E94170A8B01D82FD9
:10120000C92FB8018D2F9C2FDF91CF911F910F9186
:10121000FF90EF90DF90CF90BF90AF909F908F9016
:101220007F906F905F904F90089586E58093C902FC
:1012300081E08093CA020895CF93CFB7F89480914C
:10124000CE02811127C0EAE9F0E08491E6E8F0E0FF
:101250009491E82FF0E0EE0FFF1FE854FF4FA591A7
:10126000B4918C91892321F461E08AE00E94B40951
:1012700061E08AE00E947B098CB580618CBD8CB5F1
:1012800080648CBD61E08DE00E947B0961E08BE0B1
:101290000E947B098091CE028F5F8093CE02CFBFE8
:1012A000CF910895833081F028F4813099F0823015
:1012B000A1F008958630A9F08730B9F08430D1F4D8
:1012C000809180008F7D03C0809180008F77809314
:1012D0008000089584B58F7702C084B58F7D84BD6A
:1012E00008958091B0008F7703C08091B0008F7D0A
:1012F0008093B0000895CF93DF9390E0FC01E45811
:10130000FF4F2491FC01E057FF4F8491882349F15E
:1013100090E0880F991FFC01E854FF4FA591B4910C
:1013200082559F4FFC01C591D4919FB7611108C0B0
:10133000F8948C91209582238C93888182230AC013
:10134000623051F4F8948C91322F309583238C9332
:101350008881822B888304C0F8948C91822B8C9393
:101360009FBFDF91CF9108950F931F93CF93DF938A
:101370001F92CDB7DEB7282F30E0F901E859FF4FB3
:101380008491F901E458FF4F1491F901E057FF4FA0
:1013900004910023C9F0882321F069830E94520937
:1013A0006981E02FF0E0EE0FFF1FE255FF4FA5919E
:1013B000B4919FB7F8948C91611103C0109581236B
:1013C00001C0812B8C939FBF0F90DF91CF911F9114
:1013D0000F910895CF93DF93282F30E0F901E8595A
:1013E000FF4F8491F901E458FF4FD491F901E05780
:1013F000FF4FC491CC2391F081110E945209EC2F30
:10140000F0E0EE0FFF1FEC55FF4FA591B4912C912A
:101410002D2381E090E021F480E002C080E090E0A4
:10142000DF91CF910895F8940C94B40C5058BB27D9
:10143000AA270ED075C166D130F06BD120F031F4FF
:101440009F3F11F41EF45BC10EF4E095E7FB51C120
:10145000E92F77D180F3BA176207730784079507DE
:1014600018F071F49EF58FC10EF4E0950B2EBA2F93
:10147000A02D0B01B90190010C01CA01A00111249A
:10148000FF27591B99F0593F50F4503E68F11A1646
:10149000F040A22F232F342F4427585FF3CF4695D7
:1014A00037952795A795F0405395C9F77EF41F16F9
:1014B000BA0B620B730B840BBAF09150A1F0FF0FC3
:1014C000BB1F661F771F881FC2F70EC0BA0F621FAF
:1014D000731F841F48F4879577956795B795F7959F
:1014E0009E3F08F0B3CF9395880F08F09927EE0F31
:1014F000979587950895D9D008F481E008950CD088
:101500000FC107D140F0FED030F021F45F3F19F059
:10151000F0C0511139C1F3C014D198F39923C9F324
:101520005523B1F3951B550BBB27AA2762177307E9
:10153000840738F09F5F5F4F220F331F441FAA1F9D
:10154000A9F333D00E2E3AF0E0E830D0915050405D
:10155000E695001CCAF729D0FE2F27D0660F771F0B
:10156000881FBB1F261737074807AB07B0E809F0ED
:10157000BB0B802DBF01FF2793585F4F2AF09E3F82
:10158000510568F0B6C000C15F3FECF3983EDCF354
:10159000869577956795B795F7959F5FC9F7880FFB
:1015A000911D9695879597F90895E1E0660F771F4D
:1015B000881FBB1F621773078407BA0720F0621BDE
:1015C000730B840BBA0BEE1F88F7E095089504D0D7
:1015D0006894B111D9C00895BCD088F09F5790F09D
:1015E000B92F9927B751A0F0D1F0660F771F881F48
:1015F000991F1AF0BA95C9F712C0B13081F0C3D063
:10160000B1E00895C0C0672F782F8827B85F39F000
:10161000B93FCCF3869577956795B395D9F73EF4A6
:1016200090958095709561957F4F8F4F9F4F08954E
:10163000E89409C097FB3EF490958095709561956C
:101640007F4F8F4F9F4F9923A9F0F92F96E9BB2722
:101650009395F695879577956795B795F111F8CF9E
:10166000FAF4BB0F11F460FF1BC06F5F7F4F8F4F09
:101670009F4F16C0882311F096E911C0772321F0FF
:101680009EE8872F762F05C0662371F096E8862F97
:1016900070E060E02AF09A95660F771F881FDAF7EE
:1016A000880F9695879597F90895990F0008550F1B
:1016B000AA0BE0E8FEEF16161706E807F907C0F0D8
:1016C00012161306E407F50798F0621B730B840BE0
:1016D000950B39F40A2661F0232B242B252B21F4BA
:1016E00008950A2609F4A140A6958FEF811D811D5A
:1016F000089597F99F6780E870E060E008959FEF94
:1017000080EC089500240A94161617061806090698
:10171000089500240A941216130614060506089567
:10172000092E0394000C11F4882352F0BB0F40F4EF
:10173000BF2B11F460FF04C06F5F7F4F8F4F9F4F2F
:10174000089557FD9058440F551F59F05F3F71F0B1
:101750004795880F97FB991F61F09F3F79F0879518
:101760000895121613061406551FF2CF4695F1DFA1
:1017700008C0161617061806991FF1CF8695710531
:10178000610508940895E894BB2766277727CB0165
:1017900097F908958ADF08F48FEF08950BD0C0CF32
:1017A000B1DF28F0B6DF18F0952309F0A2CFA7CF5C
:1017B0001124EACFC6DFA0F3959FD1F3950F50E037
:1017C000551F629FF001729FBB27F00DB11D639FF3
:1017D000AA27F00DB11DAA1F649F6627B00DA11D99
:1017E000661F829F2227B00DA11D621F739FB00D3F
:1017F000A11D621F839FA00D611D221F749F3327AF
:10180000A00D611D231F849F600D211D822F762F47
:101810006A2F11249F5750408AF0E1F088234AF044
:10182000EE0FFF1FBB1F661F771F881F9150504090
:10183000A9F79E3F510570F05CCFA6CF5F3FECF358
:10184000983EDCF3869577956795B795F795E7957C
:101850009F5FC1F7FE2B880F911D9695879597F98D
:10186000089511F40EF44BCF42C073DFD0F39923E7
:10187000D9F3CEF39F57550B87FF47D00024A0E63E
:1018800040EA900180585695979528F4805C660F41
:10189000771F881F20F026173707480730F4621B90
:1018A000730B840B202931294A2BA6951794079492
:1018B000202531254A2758F7660F771F881F20F00B
:1018C00026173707480730F4620B730B840B200D83
:1018D000311D411DA09581F7B901842F9158880FC2
:1018E000969587950895E1DE880B990B08959F3FA3
:1018F00031F0915020F4879577956795B795880FCB
:10190000911D9695879597F9089591505040660FCF
:10191000771F881FD2F70895A1E21A2EAA1BBB1BBE
:10192000FD010DC0AA1FBB1FEE1FFF1FA217B307AB
:10193000E407F50720F0A21BB30BE40BF50B661FC1
:10194000771F881F991F1A9469F760957095809585
:1019500090959B01AC01BD01CF010895EE0FFF1FD3
:0C1960000590F491E02D0994F894FFCF5D
:10196C004164616672756974204D41583331383663
:10197C00352050543130302053656E736F722054C3
:10198C0065737421005254442076616C75653A205D
:10199C0000526174696F203D200052657369737445
:1019AC00616E6365203D200054656D7065726174D5
:1019BC00757265203D20004661756C74203078008E
:1019CC005254442048696768205468726573686F84
:1019DC006C6400525444204C6F77205468726573C9
:1019EC00686F6C6400524546494E2D203E20302EC7
:1019FC0038352078204269617300524546494E2D96
:101A0C00203C20302E383520782042696173202DFF
:101A1C0020464F5243452D206F70656E0052544442
:101A2C00494E2D203C20302E3835207820426961DB
:101A3C0073202D20464F5243452D206F70656E004C
:101A4C00556E6465722F4F76657220766F6C74617B
:101A5C006765006E616E00696E66006F7666002EBB
:101A6C000000000000DF0437028B04B4049B04D494
:021A7C00040064
:00000001FF
